{
  "_format": "hh-sol-artifact-1",
  "contractName": "EscrowManager",
  "sourceName": "contracts/EscrowManager.sol",
  "abi": [
    {
      "inputs": [
        {
          "internalType": "address",
          "name": "_jobManagerAddress",
          "type": "address"
        },
        {
          "internalType": "address",
          "name": "_registryAddress",
          "type": "address"
        },
        {
          "internalType": "address",
          "name": "_feeRecipient",
          "type": "address"
        },
        {
          "internalType": "address",
          "name": "_priceFeedAddress",
          "type": "address"
        },
        {
          "internalType": "address",
          "name": "_disputeResolverAddress",
          "type": "address"
        }
      ],
      "stateMutability": "nonpayable",
      "type": "constructor"
    },
    {
      "anonymous": false,
      "inputs": [
        {
          "indexed": true,
          "internalType": "uint256",
          "name": "escrowId",
          "type": "uint256"
        }
      ],
      "name": "DisputeInitiated",
      "type": "event"
    },
    {
      "anonymous": false,
      "inputs": [
        {
          "indexed": true,
          "internalType": "uint256",
          "name": "escrowId",
          "type": "uint256"
        },
        {
          "indexed": false,
          "internalType": "uint256",
          "name": "freelancerAmount",
          "type": "uint256"
        },
        {
          "indexed": false,
          "internalType": "uint256",
          "name": "clientRefund",
          "type": "uint256"
        },
        {
          "indexed": false,
          "internalType": "uint256",
          "name": "platformFee",
          "type": "uint256"
        },
        {
          "indexed": false,
          "internalType": "uint256",
          "name": "disputeFee",
          "type": "uint256"
        }
      ],
      "name": "DisputeResolutionPayment",
      "type": "event"
    },
    {
      "anonymous": false,
      "inputs": [
        {
          "indexed": true,
          "internalType": "uint256",
          "name": "escrowId",
          "type": "uint256"
        },
        {
          "indexed": true,
          "internalType": "uint256",
          "name": "jobId",
          "type": "uint256"
        },
        {
          "indexed": true,
          "internalType": "address",
          "name": "client",
          "type": "address"
        },
        {
          "indexed": false,
          "internalType": "address",
          "name": "freelancer",
          "type": "address"
        },
        {
          "indexed": false,
          "internalType": "uint256",
          "name": "amount",
          "type": "uint256"
        },
        {
          "indexed": false,
          "internalType": "uint256",
          "name": "usdValue",
          "type": "uint256"
        }
      ],
      "name": "EscrowCreated",
      "type": "event"
    },
    {
      "anonymous": false,
      "inputs": [
        {
          "indexed": false,
          "internalType": "address",
          "name": "account",
          "type": "address"
        }
      ],
      "name": "Paused",
      "type": "event"
    },
    {
      "anonymous": false,
      "inputs": [
        {
          "indexed": true,
          "internalType": "uint256",
          "name": "escrowId",
          "type": "uint256"
        },
        {
          "indexed": true,
          "internalType": "address",
          "name": "client",
          "type": "address"
        }
      ],
      "name": "PaymentApproved",
      "type": "event"
    },
    {
      "anonymous": false,
      "inputs": [
        {
          "indexed": true,
          "internalType": "uint256",
          "name": "escrowId",
          "type": "uint256"
        },
        {
          "indexed": true,
          "internalType": "address",
          "name": "client",
          "type": "address"
        },
        {
          "indexed": false,
          "internalType": "uint256",
          "name": "amount",
          "type": "uint256"
        }
      ],
      "name": "PaymentRefunded",
      "type": "event"
    },
    {
      "anonymous": false,
      "inputs": [
        {
          "indexed": true,
          "internalType": "uint256",
          "name": "escrowId",
          "type": "uint256"
        },
        {
          "indexed": true,
          "internalType": "address",
          "name": "freelancer",
          "type": "address"
        },
        {
          "indexed": false,
          "internalType": "uint256",
          "name": "amount",
          "type": "uint256"
        },
        {
          "indexed": false,
          "internalType": "uint256",
          "name": "usdValue",
          "type": "uint256"
        }
      ],
      "name": "PaymentReleased",
      "type": "event"
    },
    {
      "anonymous": false,
      "inputs": [
        {
          "indexed": true,
          "internalType": "address",
          "name": "newPriceFeed",
          "type": "address"
        }
      ],
      "name": "PriceFeedUpdated",
      "type": "event"
    },
    {
      "anonymous": false,
      "inputs": [
        {
          "indexed": true,
          "internalType": "bytes32",
          "name": "role",
          "type": "bytes32"
        },
        {
          "indexed": true,
          "internalType": "bytes32",
          "name": "previousAdminRole",
          "type": "bytes32"
        },
        {
          "indexed": true,
          "internalType": "bytes32",
          "name": "newAdminRole",
          "type": "bytes32"
        }
      ],
      "name": "RoleAdminChanged",
      "type": "event"
    },
    {
      "anonymous": false,
      "inputs": [
        {
          "indexed": true,
          "internalType": "bytes32",
          "name": "role",
          "type": "bytes32"
        },
        {
          "indexed": true,
          "internalType": "address",
          "name": "account",
          "type": "address"
        },
        {
          "indexed": true,
          "internalType": "address",
          "name": "sender",
          "type": "address"
        }
      ],
      "name": "RoleGranted",
      "type": "event"
    },
    {
      "anonymous": false,
      "inputs": [
        {
          "indexed": true,
          "internalType": "bytes32",
          "name": "role",
          "type": "bytes32"
        },
        {
          "indexed": true,
          "internalType": "address",
          "name": "account",
          "type": "address"
        },
        {
          "indexed": true,
          "internalType": "address",
          "name": "sender",
          "type": "address"
        }
      ],
      "name": "RoleRevoked",
      "type": "event"
    },
    {
      "anonymous": false,
      "inputs": [
        {
          "indexed": false,
          "internalType": "address",
          "name": "account",
          "type": "address"
        }
      ],
      "name": "Unpaused",
      "type": "event"
    },
    {
      "anonymous": false,
      "inputs": [
        {
          "indexed": true,
          "internalType": "uint256",
          "name": "escrowId",
          "type": "uint256"
        }
      ],
      "name": "WorkStarted",
      "type": "event"
    },
    {
      "anonymous": false,
      "inputs": [
        {
          "indexed": true,
          "internalType": "uint256",
          "name": "escrowId",
          "type": "uint256"
        }
      ],
      "name": "WorkSubmitted",
      "type": "event"
    },
    {
      "inputs": [],
      "name": "ADMIN_ROLE",
      "outputs": [
        {
          "internalType": "bytes32",
          "name": "",
          "type": "bytes32"
        }
      ],
      "stateMutability": "view",
      "type": "function"
    },
    {
      "inputs": [],
      "name": "DEFAULT_ADMIN_ROLE",
      "outputs": [
        {
          "internalType": "bytes32",
          "name": "",
          "type": "bytes32"
        }
      ],
      "stateMutability": "view",
      "type": "function"
    },
    {
      "inputs": [],
      "name": "MINIMUM_USD",
      "outputs": [
        {
          "internalType": "uint256",
          "name": "",
          "type": "uint256"
        }
      ],
      "stateMutability": "view",
      "type": "function"
    },
    {
      "inputs": [
        {
          "internalType": "uint256",
          "name": "_escrowId",
          "type": "uint256"
        }
      ],
      "name": "approveWork",
      "outputs": [],
      "stateMutability": "nonpayable",
      "type": "function"
    },
    {
      "inputs": [],
      "name": "autoReleaseDelay",
      "outputs": [
        {
          "internalType": "uint256",
          "name": "",
          "type": "uint256"
        }
      ],
      "stateMutability": "view",
      "type": "function"
    },
    {
      "inputs": [
        {
          "internalType": "uint256",
          "name": "_jobId",
          "type": "uint256"
        }
      ],
      "name": "createEscrow",
      "outputs": [
        {
          "internalType": "uint256",
          "name": "",
          "type": "uint256"
        }
      ],
      "stateMutability": "payable",
      "type": "function"
    },
    {
      "inputs": [],
      "name": "disputeFeeRate",
      "outputs": [
        {
          "internalType": "uint256",
          "name": "",
          "type": "uint256"
        }
      ],
      "stateMutability": "view",
      "type": "function"
    },
    {
      "inputs": [],
      "name": "disputeResolver",
      "outputs": [
        {
          "internalType": "contract IDisputeResolver",
          "name": "",
          "type": "address"
        }
      ],
      "stateMutability": "view",
      "type": "function"
    },
    {
      "inputs": [
        {
          "internalType": "uint256",
          "name": "",
          "type": "uint256"
        }
      ],
      "name": "escrows",
      "outputs": [
        {
          "internalType": "uint256",
          "name": "id",
          "type": "uint256"
        },
        {
          "internalType": "uint256",
          "name": "jobId",
          "type": "uint256"
        },
        {
          "internalType": "address",
          "name": "client",
          "type": "address"
        },
        {
          "internalType": "address",
          "name": "freelancer",
          "type": "address"
        },
        {
          "internalType": "uint256",
          "name": "amount",
          "type": "uint256"
        },
        {
          "internalType": "uint256",
          "name": "platformFee",
          "type": "uint256"
        },
        {
          "internalType": "uint256",
          "name": "createdAt",
          "type": "uint256"
        },
        {
          "internalType": "uint256",
          "name": "releaseTime",
          "type": "uint256"
        },
        {
          "internalType": "enum EscrowManager.EscrowStatus",
          "name": "status",
          "type": "uint8"
        },
        {
          "internalType": "bool",
          "name": "clientApproved",
          "type": "bool"
        },
        {
          "internalType": "bool",
          "name": "freelancerConfirmed",
          "type": "bool"
        }
      ],
      "stateMutability": "view",
      "type": "function"
    },
    {
      "inputs": [],
      "name": "feeRecipient",
      "outputs": [
        {
          "internalType": "address",
          "name": "",
          "type": "address"
        }
      ],
      "stateMutability": "view",
      "type": "function"
    },
    {
      "inputs": [
        {
          "internalType": "uint256",
          "name": "usdAmount",
          "type": "uint256"
        }
      ],
      "name": "getETHAmount",
      "outputs": [
        {
          "internalType": "uint256",
          "name": "",
          "type": "uint256"
        }
      ],
      "stateMutability": "view",
      "type": "function"
    },
    {
      "inputs": [
        {
          "internalType": "uint256",
          "name": "_escrowId",
          "type": "uint256"
        }
      ],
      "name": "getEscrow",
      "outputs": [
        {
          "components": [
            {
              "internalType": "uint256",
              "name": "id",
              "type": "uint256"
            },
            {
              "internalType": "uint256",
              "name": "jobId",
              "type": "uint256"
            },
            {
              "internalType": "address",
              "name": "client",
              "type": "address"
            },
            {
              "internalType": "address",
              "name": "freelancer",
              "type": "address"
            },
            {
              "internalType": "uint256",
              "name": "amount",
              "type": "uint256"
            },
            {
              "internalType": "uint256",
              "name": "platformFee",
              "type": "uint256"
            },
            {
              "internalType": "uint256",
              "name": "createdAt",
              "type": "uint256"
            },
            {
              "internalType": "uint256",
              "name": "releaseTime",
              "type": "uint256"
            },
            {
              "internalType": "enum EscrowManager.EscrowStatus",
              "name": "status",
              "type": "uint8"
            },
            {
              "internalType": "bool",
              "name": "clientApproved",
              "type": "bool"
            },
            {
              "internalType": "bool",
              "name": "freelancerConfirmed",
              "type": "bool"
            }
          ],
          "internalType": "struct EscrowManager.Escrow",
          "name": "",
          "type": "tuple"
        }
      ],
      "stateMutability": "view",
      "type": "function"
    },
    {
      "inputs": [
        {
          "internalType": "uint256",
          "name": "_jobId",
          "type": "uint256"
        }
      ],
      "name": "getEscrowByJob",
      "outputs": [
        {
          "internalType": "uint256",
          "name": "",
          "type": "uint256"
        }
      ],
      "stateMutability": "view",
      "type": "function"
    },
    {
      "inputs": [
        {
          "internalType": "uint256",
          "name": "_escrowId",
          "type": "uint256"
        }
      ],
      "name": "getEscrowUSDValue",
      "outputs": [
        {
          "internalType": "uint256",
          "name": "",
          "type": "uint256"
        }
      ],
      "stateMutability": "view",
      "type": "function"
    },
    {
      "inputs": [],
      "name": "getLatestPrice",
      "outputs": [
        {
          "internalType": "uint256",
          "name": "",
          "type": "uint256"
        }
      ],
      "stateMutability": "view",
      "type": "function"
    },
    {
      "inputs": [
        {
          "internalType": "bytes32",
          "name": "role",
          "type": "bytes32"
        }
      ],
      "name": "getRoleAdmin",
      "outputs": [
        {
          "internalType": "bytes32",
          "name": "",
          "type": "bytes32"
        }
      ],
      "stateMutability": "view",
      "type": "function"
    },
    {
      "inputs": [
        {
          "internalType": "uint256",
          "name": "ethAmount",
          "type": "uint256"
        }
      ],
      "name": "getUSDValue",
      "outputs": [
        {
          "internalType": "uint256",
          "name": "",
          "type": "uint256"
        }
      ],
      "stateMutability": "view",
      "type": "function"
    },
    {
      "inputs": [
        {
          "internalType": "address",
          "name": "_user",
          "type": "address"
        }
      ],
      "name": "getUserEscrows",
      "outputs": [
        {
          "internalType": "uint256[]",
          "name": "",
          "type": "uint256[]"
        }
      ],
      "stateMutability": "view",
      "type": "function"
    },
    {
      "inputs": [
        {
          "internalType": "bytes32",
          "name": "role",
          "type": "bytes32"
        },
        {
          "internalType": "address",
          "name": "account",
          "type": "address"
        }
      ],
      "name": "grantRole",
      "outputs": [],
      "stateMutability": "nonpayable",
      "type": "function"
    },
    {
      "inputs": [
        {
          "internalType": "bytes32",
          "name": "role",
          "type": "bytes32"
        },
        {
          "internalType": "address",
          "name": "account",
          "type": "address"
        }
      ],
      "name": "hasRole",
      "outputs": [
        {
          "internalType": "bool",
          "name": "",
          "type": "bool"
        }
      ],
      "stateMutability": "view",
      "type": "function"
    },
    {
      "inputs": [],
      "name": "jobManager",
      "outputs": [
        {
          "internalType": "contract IJobManager",
          "name": "",
          "type": "address"
        }
      ],
      "stateMutability": "view",
      "type": "function"
    },
    {
      "inputs": [
        {
          "internalType": "uint256",
          "name": "",
          "type": "uint256"
        }
      ],
      "name": "jobToEscrow",
      "outputs": [
        {
          "internalType": "uint256",
          "name": "",
          "type": "uint256"
        }
      ],
      "stateMutability": "view",
      "type": "function"
    },
    {
      "inputs": [
        {
          "internalType": "uint256",
          "name": "ethAmount",
          "type": "uint256"
        }
      ],
      "name": "meetsMinimumUSD",
      "outputs": [
        {
          "internalType": "bool",
          "name": "",
          "type": "bool"
        }
      ],
      "stateMutability": "view",
      "type": "function"
    },
    {
      "inputs": [],
      "name": "pause",
      "outputs": [],
      "stateMutability": "nonpayable",
      "type": "function"
    },
    {
      "inputs": [],
      "name": "paused",
      "outputs": [
        {
          "internalType": "bool",
          "name": "",
          "type": "bool"
        }
      ],
      "stateMutability": "view",
      "type": "function"
    },
    {
      "inputs": [],
      "name": "platformFeeRate",
      "outputs": [
        {
          "internalType": "uint256",
          "name": "",
          "type": "uint256"
        }
      ],
      "stateMutability": "view",
      "type": "function"
    },
    {
      "inputs": [],
      "name": "priceFeed",
      "outputs": [
        {
          "internalType": "contract AggregatorV3Interface",
          "name": "",
          "type": "address"
        }
      ],
      "stateMutability": "view",
      "type": "function"
    },
    {
      "inputs": [
        {
          "internalType": "uint256",
          "name": "_escrowId",
          "type": "uint256"
        }
      ],
      "name": "processRefund",
      "outputs": [],
      "stateMutability": "nonpayable",
      "type": "function"
    },
    {
      "inputs": [],
      "name": "registry",
      "outputs": [
        {
          "internalType": "contract ISafeGigRegistry",
          "name": "",
          "type": "address"
        }
      ],
      "stateMutability": "view",
      "type": "function"
    },
    {
      "inputs": [
        {
          "internalType": "uint256",
          "name": "_escrowId",
          "type": "uint256"
        }
      ],
      "name": "releaseBasedOnDispute",
      "outputs": [],
      "stateMutability": "nonpayable",
      "type": "function"
    },
    {
      "inputs": [
        {
          "internalType": "uint256",
          "name": "_escrowId",
          "type": "uint256"
        }
      ],
      "name": "releasePayment",
      "outputs": [],
      "stateMutability": "nonpayable",
      "type": "function"
    },
    {
      "inputs": [
        {
          "internalType": "bytes32",
          "name": "role",
          "type": "bytes32"
        },
        {
          "internalType": "address",
          "name": "account",
          "type": "address"
        }
      ],
      "name": "renounceRole",
      "outputs": [],
      "stateMutability": "nonpayable",
      "type": "function"
    },
    {
      "inputs": [
        {
          "internalType": "uint256",
          "name": "_escrowId",
          "type": "uint256"
        }
      ],
      "name": "requestRefund",
      "outputs": [],
      "stateMutability": "nonpayable",
      "type": "function"
    },
    {
      "inputs": [
        {
          "internalType": "bytes32",
          "name": "role",
          "type": "bytes32"
        },
        {
          "internalType": "address",
          "name": "account",
          "type": "address"
        }
      ],
      "name": "revokeRole",
      "outputs": [],
      "stateMutability": "nonpayable",
      "type": "function"
    },
    {
      "inputs": [
        {
          "internalType": "uint256",
          "name": "_delay",
          "type": "uint256"
        }
      ],
      "name": "setAutoReleaseDelay",
      "outputs": [],
      "stateMutability": "nonpayable",
      "type": "function"
    },
    {
      "inputs": [
        {
          "internalType": "uint256",
          "name": "_feeRate",
          "type": "uint256"
        }
      ],
      "name": "setDisputeFeeRate",
      "outputs": [],
      "stateMutability": "nonpayable",
      "type": "function"
    },
    {
      "inputs": [
        {
          "internalType": "address",
          "name": "_disputeResolverAddress",
          "type": "address"
        }
      ],
      "name": "setDisputeResolver",
      "outputs": [],
      "stateMutability": "nonpayable",
      "type": "function"
    },
    {
      "inputs": [
        {
          "internalType": "address",
          "name": "_feeRecipient",
          "type": "address"
        }
      ],
      "name": "setFeeRecipient",
      "outputs": [],
      "stateMutability": "nonpayable",
      "type": "function"
    },
    {
      "inputs": [
        {
          "internalType": "uint256",
          "name": "_feeRate",
          "type": "uint256"
        }
      ],
      "name": "setPlatformFeeRate",
      "outputs": [],
      "stateMutability": "nonpayable",
      "type": "function"
    },
    {
      "inputs": [
        {
          "internalType": "address",
          "name": "_priceFeed",
          "type": "address"
        }
      ],
      "name": "setPriceFeed",
      "outputs": [],
      "stateMutability": "nonpayable",
      "type": "function"
    },
    {
      "inputs": [
        {
          "internalType": "uint256",
          "name": "_escrowId",
          "type": "uint256"
        }
      ],
      "name": "startWork",
      "outputs": [],
      "stateMutability": "nonpayable",
      "type": "function"
    },
    {
      "inputs": [
        {
          "internalType": "uint256",
          "name": "_escrowId",
          "type": "uint256"
        }
      ],
      "name": "submitWork",
      "outputs": [],
      "stateMutability": "nonpayable",
      "type": "function"
    },
    {
      "inputs": [
        {
          "internalType": "bytes4",
          "name": "interfaceId",
          "type": "bytes4"
        }
      ],
      "name": "supportsInterface",
      "outputs": [
        {
          "internalType": "bool",
          "name": "",
          "type": "bool"
        }
      ],
      "stateMutability": "view",
      "type": "function"
    },
    {
      "inputs": [],
      "name": "unpause",
      "outputs": [],
      "stateMutability": "nonpayable",
      "type": "function"
    },
    {
      "inputs": [
        {
          "internalType": "address",
          "name": "",
          "type": "address"
        },
        {
          "internalType": "uint256",
          "name": "",
          "type": "uint256"
        }
      ],
      "name": "userEscrows",
      "outputs": [
        {
          "internalType": "uint256",
          "name": "",
          "type": "uint256"
        }
      ],
      "stateMutability": "view",
      "type": "function"
    }
  ],
  "bytecode": "0x608034620002a857601f62002fcc38819003918201601f191683019291906001600160401b03841183851017620002ad578160a09284926040968752833981010312620002a8576200005181620002c3565b60209162000061838201620002c3565b916200006f858301620002c3565b906200008c60806200008460608601620002c3565b9401620002c3565b9260ff19948560015416600155600160025560fa60045560fa600c556213c680600d5560018060a01b038092169360018060a01b03199480866007541617600755156200026f5782169485156200022b578216928315620001e957821684600554161760055516826006541617600655816003541617600355600e541617600e55600090818052818352838220338352835260ff848320541615620001b3575b7fa49807205ce4d355092ef5a8a18f56e8913cf4a201fbe287825b095693c2177592838352828152848320338452815260ff85842054161562000179575b8451612cd39081620002d98239f35b8383528281528483209033845252600184832091825416179055339160008051602062002fac833981519152339280a4388080806200016a565b818052818352838220338352835283822060018282541617905533338360008051602062002fac8339815191528180a46200012c565b6064888a519062461bcd60e51b825280600483015260248201527f496e76616c69642064697370757465207265736f6c76657220616464726573736044820152fd5b885162461bcd60e51b815260048101899052601560248201527f496e76616c69642066656520726563697069656e7400000000000000000000006044820152606490fd5b885162461bcd60e51b8152600481018990526012602482015271125b9d985b1a59081c1c9a58d9481999595960721b6044820152606490fd5b600080fd5b634e487b7160e01b600052604160045260246000fd5b51906001600160a01b0382168203620002a85756fe608080604052600436101561001357600080fd5b60003560e01c908162d0ca9d14611ff557508063012f52ee14611f4057806301ffc9a714611eea57806303a250f914611de0578063248a9ca314611db15780632f2ff15d14611cfe57806336568abe14611c6c5780633d01e0fa14611b545780633df395a314611b2b5780633eec342a14611abc5780633f4ba83a14611a2857806346904840146119ff578063517d5e4e146119d857806352c191a61461198e57806358b12898146119705780635c975abb1461194d5780635ccea85e146118995780635d4262071461185a5780636b69a5921461183b578063724e78da14611798578063741bef1a1461176f57806375b238fc146117345780637b1039991461170b5780637d19e5961461156f5780637f944dd0146115175780638456cb59146114be57806388685cd9146113ba5780638da2c87314610ed15780638e15f47314610eae57806391d1485414610e61578063924e63f614610dd5578063927fef2e14610d6657806394e015c814610d485780639a80513414610cc3578063a217fddf14610ca7578063a4b2409e14610b30578063ad67d44614610616578063c4c11523146104d8578063d547741f14610497578063d65d5b3a1461046b578063dac87ca414610353578063e74b981b146102ce578063eeca08f0146102b0578063ef46b2ab1461023b5763f5a3f4af1461020d57600080fd5b34610236576000366003190112610236576003546040516001600160a01b039091168152602090f35b600080fd5b346102365760203660031901126102365760043561025761291a565b90670de0b6b3a76400009081810291818304149015171561029a5781156102845760209160405191048152f35b634e487b7160e01b600052601260045260246000fd5b634e487b7160e01b600052601160045260246000fd5b34610236576000366003190112610236576020600c54604051908152f35b34610236576020366003190112610236576102e7612040565b6102ef612084565b6001600160a01b03168015610316576001600160601b0360a01b600e541617600e55600080f35b60405162461bcd60e51b8152602060048201526015602482015274125b9d985b1a5908199959481c9958da5c1a595b9d605a1b6044820152606490fd5b346102365760203660031901126102365760043561036f612084565b61037761283f565b80600052600960205260406000209060088201805460ff8116906007821015610455576103a86006600593146126e7565b60ff19161790557fe89ec1881a76229445bcd179b8c4b24f9edc7ddd87d07fb3b19c67ae9c6e27cc60206004840193845461044360026103ee600585019384549061279a565b930180546040516001600160a01b039592949261042e928716610410836123f9565b600d83526c1499599d5b990819985a5b1959609a1b898401526128c3565b83600e5416905461043d612810565b916128c3565b54169354604051908152a36001600255005b634e487b7160e01b600052602160045260246000fd5b3461023657602036600319011261023657600435600052600a6020526020604060002054604051908152f35b34610236576040366003190112610236576104d66004356104b661202a565b908060005260006020526104d160016040600020015461229a565b61247f565b005b346102365760208060031936011261023657600435908160005260098152604060002061051d60018060a01b0391826002820154163314908115610606575b50612a6e565b826000526009825260ff6008604060002001541660078110156104555760016105469114612aba565b8260005260098252339060036040600020015416036105c257816000526009815260086040600020016201000262ff00ff19825416179055600961058c600d5442612506565b9183600052526007604060002001557f37da35a9cc37616d182b3f359f2fff61f738f090deb49c6a76a9c84c2462ba0e600080a2005b6064906040519062461bcd60e51b82526004820152601f60248201527f4f6e6c7920667265656c616e6365722063616e207375626d697420776f726b006044820152fd5b6003015483163314905085610517565b34610236576020806003193601126102365760043590610634612084565b61063c61283f565b81600052600981526040600020600881019081549260ff8416600781101561045557600681610671600461068494141561264f565b61067e600582141561269b565b146126e7565b6003546001830154604051638db2754960e01b815260048101919091526001600160a01b03918216936024929184818581895afa908115610ab357600091610b03575b508015610abf57600090846040518098819363e3a96cbd60e01b835260048301525afa948515610ab357600080916000976109db575b5060ff16600281149081156109d0575b501561098c5760ff1694851561095457600482015493600583015496612710610738600454886124f3565b049860046107506107498c8c612506565b809961279a565b60ff19909c16179055600181036107ce57505050926107b27f5e09fbbb0b1f1ad3e7e43d9d46c26586a4a8377045cf0ceeddaab21295d276be979593836107a5600095600360809b990154168961043d6127a7565b600e54169061043d612810565b60405194855284015260408301526060820152a25b6001600255005b95989560028103610836575050507f5e09fbbb0b1f1ad3e7e43d9d46c26586a4a8377045cf0ceeddaab21295d276be969492826107a56080989694600261081b950154168561043d6127e0565b604051936000855284015260408301526060820152a26107c7565b929894939260030361091157606482116108ce57508492826107a57f5e09fbbb0b1f1ad3e7e43d9d46c26586a4a8377045cf0ceeddaab21295d276be9a9896946002610895606461088d6108b59860809f9d6124f3565b04809961279a565b9a6108a9836003830154168d61043d6127a7565b0154168661043d6127e0565b60405194855284015260408301526060820152a26107c7565b8460196064926040519262461bcd60e51b845260048401528201527f496e76616c696420726566756e642070657263656e74616765000000000000006044820152fd5b8460176064926040519262461bcd60e51b845260048401528201527f496e76616c6964207265736f6c7574696f6e20747970650000000000000000006044820152fd5b60405162461bcd60e51b81526004810186905260118186015270139bc81c995cdbdb1d5d1a5bdb881cd95d607a1b6044820152606490fd5b60405162461bcd60e51b815260048101869052601e818601527f44697370757465206e6f74207265736f6c766564206f7220636c6f73656400006044820152606490fd5b60049150148a61070d565b965050503d806000873e6109ef8187612431565b85016101e08682031261023657610a0860608701612733565b50610a1560808701612733565b50610a2260a08701612733565b5060c086015167ffffffffffffffff908181116102365782610a45918901612747565b5060e08701518181116102365782610a5e918901612747565b50610a6c610100880161278c565b610a79610120890161278c565b97610a876101408201612733565b506101a0810151936101c08201519384116102365760ff93610aa99201612747565b50969196906106fd565b6040513d6000823e3d90fd5b60405162461bcd60e51b815260048101869052601d818601527f4e6f206469737075746520666f756e6420666f722074686973206a6f620000006044820152606490fd5b90508481813d8311610b29575b610b1a8183612431565b810103126102365751896106c7565b503d610b10565b3461023657602080600319360112610236576004359081600052600981526040600020610b7460018060a01b03918260028201541633149081156106065750612a6e565b826000526009825233906002604060002001541603610c6357816000526009815260ff60086040600020015416600781101561045557158015610c3d575b15610bf95760099082600052526008604060002001600660ff198254161790557f116f6b179359db1a58a963fc783ee184e7844aba306a3c2ce02de3d7391d17c3600080a2005b6064906040519062461bcd60e51b82526004820152601b60248201527f43616e6e6f7420726566756e64206174207468697320737461676500000000006044820152fd5b50816000526009815260ff60086040600020015416600781101561045557600114610bb2565b6064906040519062461bcd60e51b82526004820152601e60248201527f4f6e6c7920636c69656e742063616e207265717565737420726566756e6400006044820152fd5b3461023657600036600319011261023657602060405160008152f35b3461023657602036600319011261023657600435610cdf612084565b6201518081101580610d3b575b15610cf657600d55005b60405162461bcd60e51b815260206004820152601f60248201527f44656c6179206d757374206265206265747765656e20312d33302064617973006044820152606490fd5b5062278d00811115610cec565b34610236576000366003190112610236576020600d54604051908152f35b3461023657602036600319011261023657600435610d82612084565b6103e88111610d9057600c55005b60405162461bcd60e51b815260206004820152601a60248201527f46656520726174652063616e6e6f7420657863656564203130250000000000006044820152606490fd5b3461023657602036600319011261023657610dee612040565b610df6612084565b6001600160a01b03168015610e1d576001600160601b0360a01b6003541617600355600080f35b606460405162461bcd60e51b815260206004820152602060248201527f496e76616c69642064697370757465207265736f6c76657220616464726573736044820152fd5b3461023657604036600319011261023657610e7a61202a565b600435600052600060205260406000209060018060a01b0316600052602052602060ff604060002054166040519015158152f35b34610236576000366003190112610236576020610ec961291a565b604051908152f35b602036600319011261023657610ee5612a2a565b610eed61283f565b6005546040516326561ae360e11b8152600480359082015290608090829060249082906001600160a01b03165afa8015610ab35760009160009160009160009161135b575b50336001600160a01b0385160361130c576001600160a01b038316156112c75760ff600191160361128257340361123d57600435600052600a6020526040600020546111ed57631dcd6500670de0b6b3a7640000610f97610f9161291a565b346124f3565b04106111a8576008549060018201600855612710610fb7600c54346124f3565b0492610fc5600d5442612506565b60405194610fd2866123c6565b848652600435602087015260018060a01b038316604087015260018060a01b038416606087015234608087015260a08601524260c086015260e08501526000610100850152600061012085015260006101408501528260005260096020526008604060002085518155602086015160018201556002810160018060a01b03604088015116906001600160601b0360a01b9182825416179055600382019060018060a01b03606089015116908254161790556080860151600482015560a0860151600582015560c0860151600682015560e0860151600782015501610100850151600781101561045557602095825460ff62ff000061014061ff00610120860151151560081b16940151151560101b1693169062ffffff19161717179055600435600052600a84528260406000205560018060a01b038116600052600b845261111e8360406000206129f0565b60018060a01b038216600052600b845261113c8360406000206129f0565b670de0b6b3a7640000611150610f9161291a565b046040519260018060a01b031683523485840152604083015260018060a01b031690827f77d95d7d4cd9f44f1426d042e302c95fd08504da9f966a1eda7b5f08c5404a94606060043593a46001600255604051908152f35b60405162461bcd60e51b815260206004820152601e60248201527f457363726f7720616d6f756e742062656c6f77202435206d696e696d756d00006044820152606490fd5b60405162461bcd60e51b815260206004820152602260248201527f457363726f7720616c72656164792065786973747320666f722074686973206a60448201526137b160f11b6064820152608490fd5b60405162461bcd60e51b815260206004820152601760248201527f496e636f727265637420657363726f7720616d6f756e740000000000000000006044820152606490fd5b60405162461bcd60e51b815260206004820152601a60248201527f4a6f62206e6f7420696e2061737369676e6564207374617475730000000000006044820152606490fd5b60405162461bcd60e51b815260206004820152601e60248201527f4a6f62206e6f742061737369676e656420746f20667265656c616e63657200006044820152606490fd5b60405162461bcd60e51b815260206004820152602160248201527f4f6e6c79206a6f6220636c69656e742063616e2063726561746520657363726f6044820152607760f81b6064820152608490fd5b93505050506080813d82116113b2575b8161137860809383612431565b810103126102365761138981612733565b9061139660208201612733565b916113a860606040840151930161278c565b9092919084610f32565b3d915061136b565b34610236576020366003190112610236576004356000818152600960205260409020600281015461140191336001600160a01b03928316149182156114ac575b5050612a6e565b61140961283f565b806000526009602052604060002060ff600882015416906007821015610455576003821491821561148a575b505015611445576107c790612afe565b60405162461bcd60e51b815260206004820152601a60248201527f43616e6e6f742072656c65617365207061796d656e74207965740000000000006044820152606490fd5b60021491508161149d575b508280611435565b60079150015442101582611495565b909150600333920154161483806113fa565b34610236576000366003190112610236576114d7612084565b6114df612a2a565b600160ff19815416176001557f62e78cea01bee320cd4e420270b5ea74000d11b0c9f74754ebdbfc544b05a2586020604051338152a1005b3461023657604036600319011261023657611530612040565b6001600160a01b03166000908152600b60205260409020805460243591908210156102365760209161156191612056565b90546040519160031b1c8152f35b34610236576020366003190112610236576000610140604051611591816123c6565b8281528260208201528260408201528260608201528260808201528260a08201528260c08201528260e082015282610100820152826101208201520152600435600052600960205260406000206008604051916115ed836123c6565b805483526001810154602084015260028101546001600160a01b039081166040850152600382015416606084015260048101546080840152600581015460a0840152600681015460c084015260078082015460e0850152910154919060ff831690811015610455576101609260ff91610100840152818160081c16151561012084015260101c16151561014082015261014060405191805183526020810151602084015260018060a01b03604082015116604084015260018060a01b0360608201511660608401526080810151608084015260a081015160a084015260c081015160c084015260e081015160e08401526116f161010082015161010085019061201d565b610120810151151561012084015201511515610140820152f35b34610236576000366003190112610236576006546040516001600160a01b039091168152602090f35b346102365760003660031901126102365760206040517fa49807205ce4d355092ef5a8a18f56e8913cf4a201fbe287825b095693c217758152f35b34610236576000366003190112610236576007546040516001600160a01b039091168152602090f35b34610236576020366003190112610236576117b1612040565b6117b9612084565b6001600160a01b0316801561180157600780546001600160a01b031916821790557fe5b20b8497e4f3e2435ef9c20e2e26b47497ee13745ce1c681ad6640653119e6600080a2005b60405162461bcd60e51b8152602060048201526012602482015271125b9d985b1a59081c1c9a58d9481999595960721b6044820152606490fd5b34610236576000366003190112610236576020604051631dcd65008152f35b34610236576020366003190112610236576020631dcd6500670de0b6b3a764000061188e61188661291a565b6004356124f3565b041015604051908152f35b3461023657602080600319360112610236576001600160a01b036118bb612040565b16600052600b8152604060002060405190818382549182815201908192600052846000209060005b868282106119395786866118f982880383612431565b604051928392818401908285525180915260408401929160005b82811061192257505050500390f35b835185528695509381019392810192600101611913565b8354855290930192600192830192016118e3565b3461023657600036600319011261023657602060ff600154166040519015158152f35b34610236576000366003190112610236576020600454604051908152f35b346102365760203660031901126102365760043560005260096020526020670de0b6b3a76400006119cf6004604060002001546119c961291a565b906124f3565b04604051908152f35b34610236576020366003190112610236576020670de0b6b3a76400006119cf61188661291a565b3461023657600036600319011261023657600e546040516001600160a01b039091168152602090f35b3461023657600036600319011261023657611a41612084565b60015460ff811615611a805760ff19166001557f5db9ee0a495bf2e6ff9c91a7834c1ba4fdd244a5e8aa4e537bd38aeae4b073aa6020604051338152a1005b60405162461bcd60e51b815260206004820152601460248201527314185d5cd8589b194e881b9bdd081c185d5cd95960621b6044820152606490fd5b3461023657602036600319011261023657600435611ad8612084565b6101f48111611ae657600455005b60405162461bcd60e51b815260206004820152601c60248201527f44697370757465206665652063616e6e6f7420657863656564203525000000006044820152606490fd5b34610236576000366003190112610236576005546040516001600160a01b039091168152602090f35b3461023657602080600319360112610236576004356000818152600983526040902060028101546001600160a01b0391611b9991831633149081156106065750612a6e565b816000526009835260ff600860406000200154166007811015610455576002611bc29114612aba565b816000526009835233906002604060002001541603611c275760096104d6928260005252600860406000200161010361ffff1982541617905533817f7c0257138bc682dcff9eb84d702bf9118b11a37ab9af95828ea7332c078eb93f600080a3612afe565b60405162461bcd60e51b815260048101839052601c60248201527f4f6e6c7920636c69656e742063616e20617070726f766520776f726b000000006044820152606490fd5b3461023657604036600319011261023657611c8561202a565b336001600160a01b03821603611ca1576104d69060043561247f565b60405162461bcd60e51b815260206004820152602f60248201527f416363657373436f6e74726f6c3a2063616e206f6e6c792072656e6f756e636560448201526e103937b632b9903337b91039b2b63360891b6064820152608490fd5b3461023657604036600319011261023657600435611d1a61202a565b816000526000602052611d3460016040600020015461229a565b81600052600060205260406000209060018060a01b0316908160005260205260ff6040600020541615611d6357005b8160005260006020526040600020816000526020526040600020600160ff1982541617905533917f2f8788117e7eff1d82e926ec794901d17c78024a50270940304540a733656f0d600080a4005b346102365760203660031901126102365760043560005260006020526020600160406000200154604051908152f35b3461023657602080600319360112610236576004359081600052600981526040600020611e2460018060a01b03918260028201541633149081156106065750612a6e565b826000526009825260ff60086040600020015416600781101561045557611e4b9015612aba565b826000526009825233906003604060002001541603611ea65760099082600052526008604060002001600160ff198254161790557fc3c378194d9e90cdb8b913079ee164e56f5f5286b5ebff8c41501540bd3e2670600080a2005b6064906040519062461bcd60e51b82526004820152601e60248201527f4f6e6c7920667265656c616e6365722063616e20737461727420776f726b00006044820152fd5b346102365760203660031901126102365760043563ffffffff60e01b811680910361023657602090637965db0b60e01b8114908115611f2f575b506040519015158152f35b6301ffc9a760e01b14905082611f24565b34610236576020366003190112610236576004356000526009602052610160604060002060ff81549160018101549060018060a01b03806002830154169060038301541660048301546005840154916006850154936008600787015496015496604051998a5260208a015260408901526060880152608087015260a086015260c085015260e0840152611fd9610100840183831661201d565b818160081c16151561012084015260101c161515610140820152f35b3461023657602036600319011261023657602090600435600052600a82526040600020548152f35b9060078210156104555752565b602435906001600160a01b038216820361023657565b600435906001600160a01b038216820361023657565b805482101561206e5760005260206000200190600090565b634e487b7160e01b600052603260045260246000fd5b3360009081527f7d7ffb7a348e1c6a02869081a26547b49160dd3df72d1d75a570eb9b698292ec60209081526040808320549092907fa49807205ce4d355092ef5a8a18f56e8913cf4a201fbe287825b095693c217759060ff16156120e95750505050565b6120f233612540565b8451916120fe83612415565b6042835284830193606036863783511561228657603085538351906001918210156122865790607860218601536041915b818311612218575050506121d6576121849385936121bc936121ad6048946121d29951988576020b1b1b2b9b9a1b7b73a3937b61d1030b1b1b7bab73a1604d1b8b9788015282519283916037890191016123a3565b8401917001034b99036b4b9b9b4b733903937b6329607d1b6037840152518093868401906123a3565b01036028810185520183612431565b5162461bcd60e51b815291829160048301612453565b0390fd5b60648486519062461bcd60e51b825280600483015260248201527f537472696e67733a20686578206c656e67746820696e73756666696369656e746044820152fd5b909192600f81166010811015612272576f181899199a1a9b1b9c1cb0b131b232b360811b901a612248858861252f565b5360041c92801561225e5760001901919061212f565b634e487b7160e01b82526011600452602482fd5b634e487b7160e01b83526032600452602483fd5b634e487b7160e01b81526032600452602490fd5b6000818152602090808252604092838220338352835260ff8483205416156122c25750505050565b6122cb33612540565b8451916122d783612415565b6042835284830193606036863783511561228657603085538351906001918210156122865790607860218601536041915b81831161235d575050506121d6576121849385936121bc936121ad6048946121d29951988576020b1b1b2b9b9a1b7b73a3937b61d1030b1b1b7bab73a1604d1b8b9788015282519283916037890191016123a3565b909192600f81166010811015612272576f181899199a1a9b1b9c1cb0b131b232b360811b901a61238d858861252f565b5360041c92801561225e57600019019190612308565b60005b8381106123b65750506000910152565b81810151838201526020016123a6565b610160810190811067ffffffffffffffff8211176123e357604052565b634e487b7160e01b600052604160045260246000fd5b6040810190811067ffffffffffffffff8211176123e357604052565b6080810190811067ffffffffffffffff8211176123e357604052565b90601f8019910116810190811067ffffffffffffffff8211176123e357604052565b6040916020825261247381518092816020860152602086860191016123a3565b601f01601f1916010190565b9060009180835282602052604083209160018060a01b03169182845260205260ff6040842054166124af57505050565b80835282602052604083208284526020526040832060ff1981541690557ff6391f5c32d9c69d2a47ea670b442974b53935d1edc7fd64eb21e047a839171b339380a4565b8181029291811591840414171561029a57565b9190820180921161029a57565b67ffffffffffffffff81116123e357601f01601f191660200190565b90815181101561206e570160200190565b604051906060820182811067ffffffffffffffff8211176123e357604052602a825260208201604036823782511561206e5760309053815160019081101561206e57607860218401536029905b8082116125e157505061259d5790565b606460405162461bcd60e51b815260206004820152602060248201527f537472696e67733a20686578206c656e67746820696e73756666696369656e746044820152fd5b9091600f8116601081101561263a576f181899199a1a9b1b9c1cb0b131b232b360811b901a612610848661252f565b5360041c91801561262557600019019061258d565b60246000634e487b7160e01b81526011600452fd5b60246000634e487b7160e01b81526032600452fd5b1561265657565b60405162461bcd60e51b815260206004820152601860248201527f5061796d656e7420616c72656164792072656c656173656400000000000000006044820152606490fd5b156126a257565b60405162461bcd60e51b815260206004820152601860248201527f5061796d656e7420616c726561647920726566756e64656400000000000000006044820152606490fd5b156126ee57565b60405162461bcd60e51b815260206004820152601d60248201527f457363726f77206e6f7420696e206469737075746564207374617475730000006044820152606490fd5b51906001600160a01b038216820361023657565b81601f8201121561023657805161275d81612513565b9261276b6040519485612431565b818452602082840101116102365761278991602080850191016123a3565b90565b519060ff8216820361023657565b9190820391821161029a57565b604051906127b4826123f9565b601982527f467265656c616e636572207061796d656e74206661696c6564000000000000006020830152565b604051906127ed826123f9565b601482527310db1a595b9d081c99599d5b990819985a5b195960621b6020830152565b6040519061281d826123f9565b6013825272119959481d1c985b9cd9995c8819985a5b1959606a1b6020830152565b600280541461284e5760028055565b60405162461bcd60e51b815260206004820152601f60248201527f5265656e7472616e637947756172643a207265656e7472616e742063616c6c006044820152606490fd5b3d156128be573d906128a482612513565b916128b26040519384612431565b82523d6000602084013e565b606090565b816128cd57505050565b600080809381935af16128de612893565b50156128e75750565b60405162461bcd60e51b81529081906121d29060048301612453565b519069ffffffffffffffffffff8216820361023657565b600754604051633fabe5a360e21b81529060a090829060049082906001600160a01b03165afa908115610ab3576000916129a1575b50600081131561295c5790565b60405162461bcd60e51b815260206004820152601960248201527f496e76616c69642070726963652066726f6d206f7261636c65000000000000006044820152606490fd5b9060a0823d82116129e8575b816129ba60a09383612431565b810103126129e557506129cc81612903565b506129de608060208301519201612903565b503861294f565b80fd5b3d91506129ad565b8054680100000000000000008110156123e357612a1291600182018155612056565b819291549060031b91821b91600019901b1916179055565b60ff60015416612a3657565b60405162461bcd60e51b815260206004820152601060248201526f14185d5cd8589b194e881c185d5cd95960821b6044820152606490fd5b15612a7557565b60405162461bcd60e51b815260206004820152601e60248201527f4e6f7420617574686f72697a656420666f72207468697320657363726f7700006044820152606490fd5b15612ac157565b60405162461bcd60e51b8152602060048201526015602482015274496e76616c696420657363726f772073746174757360581b6044820152606490fd5b6000908082526009602052604082209160088301805460ff81166007811015612c895790612b3d600583612b3660048096141561264f565b141561269b565b60ff1916179055600483015490612b5a600585019283549061279a565b906003670de0b6b3a7640000612b77612b7161291a565b856124f3565b0495019060018060a01b03938180808087898854165af1612b96612893565b5015612c44575480612bdb575b5050907f8cdc8dc08e54a4e57f52077ecf1b4c508758513439cae2aa325dcc85b922fca89260409254169482519182526020820152a3565b8180809287600e97969754165af1612bf1612893565b5015612bff57903880612ba3565b60405162461bcd60e51b815260206004820152601c60248201527f506c6174666f726d20666565207472616e73666572206661696c6564000000006044820152606490fd5b60405162461bcd60e51b815260206004820152601c60248201527f5061796d656e7420746f20667265656c616e636572206661696c6564000000006044820152606490fd5b634e487b7160e01b84526021600452602484fdfea26469706673582212203483c8c522a8bfd4bfbc06ad8217bfc7f05532ca113b674f5c1707ff1b33405e64736f6c634300081300332f8788117e7eff1d82e926ec794901d17c78024a50270940304540a733656f0d",
  "linkReferences": {},
  "deployedLinkReferences": {}
}