{
  "_format": "hh-sol-artifact-1",
  "contractName": "JobManager",
  "sourceName": "contracts/JobManager.sol",
  "abi": [
    {
      "inputs": [
        {
          "internalType": "address",
          "name": "_registryAddress",
          "type": "address"
        }
      ],
      "stateMutability": "nonpayable",
      "type": "constructor"
    },
    {
      "anonymous": false,
      "inputs": [
        {
          "indexed": true,
          "internalType": "uint256",
          "name": "applicationId",
          "type": "uint256"
        },
        {
          "indexed": false,
          "internalType": "enum JobManager.ApplicationStatus",
          "name": "status",
          "type": "uint8"
        }
      ],
      "name": "ApplicationStatusUpdated",
      "type": "event"
    },
    {
      "anonymous": false,
      "inputs": [
        {
          "indexed": true,
          "internalType": "uint256",
          "name": "applicationId",
          "type": "uint256"
        },
        {
          "indexed": true,
          "internalType": "uint256",
          "name": "jobId",
          "type": "uint256"
        },
        {
          "indexed": true,
          "internalType": "address",
          "name": "freelancer",
          "type": "address"
        }
      ],
      "name": "JobApplicationSubmitted",
      "type": "event"
    },
    {
      "anonymous": false,
      "inputs": [
        {
          "indexed": true,
          "internalType": "uint256",
          "name": "jobId",
          "type": "uint256"
        },
        {
          "indexed": true,
          "internalType": "address",
          "name": "freelancer",
          "type": "address"
        }
      ],
      "name": "JobAssigned",
      "type": "event"
    },
    {
      "anonymous": false,
      "inputs": [
        {
          "indexed": true,
          "internalType": "uint256",
          "name": "jobId",
          "type": "uint256"
        },
        {
          "indexed": true,
          "internalType": "address",
          "name": "freelancer",
          "type": "address"
        },
        {
          "indexed": false,
          "internalType": "uint256",
          "name": "amount",
          "type": "uint256"
        }
      ],
      "name": "JobCompleted",
      "type": "event"
    },
    {
      "anonymous": false,
      "inputs": [
        {
          "indexed": true,
          "internalType": "uint256",
          "name": "jobId",
          "type": "uint256"
        },
        {
          "indexed": true,
          "internalType": "address",
          "name": "client",
          "type": "address"
        },
        {
          "indexed": false,
          "internalType": "uint256",
          "name": "budget",
          "type": "uint256"
        }
      ],
      "name": "JobPosted",
      "type": "event"
    },
    {
      "anonymous": false,
      "inputs": [
        {
          "indexed": true,
          "internalType": "uint256",
          "name": "jobId",
          "type": "uint256"
        },
        {
          "indexed": false,
          "internalType": "enum JobManager.JobStatus",
          "name": "status",
          "type": "uint8"
        }
      ],
      "name": "JobStatusUpdated",
      "type": "event"
    },
    {
      "anonymous": false,
      "inputs": [
        {
          "indexed": false,
          "internalType": "address",
          "name": "account",
          "type": "address"
        }
      ],
      "name": "Paused",
      "type": "event"
    },
    {
      "anonymous": false,
      "inputs": [
        {
          "indexed": true,
          "internalType": "bytes32",
          "name": "role",
          "type": "bytes32"
        },
        {
          "indexed": true,
          "internalType": "bytes32",
          "name": "previousAdminRole",
          "type": "bytes32"
        },
        {
          "indexed": true,
          "internalType": "bytes32",
          "name": "newAdminRole",
          "type": "bytes32"
        }
      ],
      "name": "RoleAdminChanged",
      "type": "event"
    },
    {
      "anonymous": false,
      "inputs": [
        {
          "indexed": true,
          "internalType": "bytes32",
          "name": "role",
          "type": "bytes32"
        },
        {
          "indexed": true,
          "internalType": "address",
          "name": "account",
          "type": "address"
        },
        {
          "indexed": true,
          "internalType": "address",
          "name": "sender",
          "type": "address"
        }
      ],
      "name": "RoleGranted",
      "type": "event"
    },
    {
      "anonymous": false,
      "inputs": [
        {
          "indexed": true,
          "internalType": "bytes32",
          "name": "role",
          "type": "bytes32"
        },
        {
          "indexed": true,
          "internalType": "address",
          "name": "account",
          "type": "address"
        },
        {
          "indexed": true,
          "internalType": "address",
          "name": "sender",
          "type": "address"
        }
      ],
      "name": "RoleRevoked",
      "type": "event"
    },
    {
      "anonymous": false,
      "inputs": [
        {
          "indexed": false,
          "internalType": "address",
          "name": "account",
          "type": "address"
        }
      ],
      "name": "Unpaused",
      "type": "event"
    },
    {
      "inputs": [],
      "name": "ADMIN_ROLE",
      "outputs": [
        {
          "internalType": "bytes32",
          "name": "",
          "type": "bytes32"
        }
      ],
      "stateMutability": "view",
      "type": "function"
    },
    {
      "inputs": [],
      "name": "DEFAULT_ADMIN_ROLE",
      "outputs": [
        {
          "internalType": "bytes32",
          "name": "",
          "type": "bytes32"
        }
      ],
      "stateMutability": "view",
      "type": "function"
    },
    {
      "inputs": [],
      "name": "JOB_MANAGER_ROLE",
      "outputs": [
        {
          "internalType": "bytes32",
          "name": "",
          "type": "bytes32"
        }
      ],
      "stateMutability": "view",
      "type": "function"
    },
    {
      "inputs": [
        {
          "internalType": "uint256",
          "name": "_applicationId",
          "type": "uint256"
        }
      ],
      "name": "acceptApplication",
      "outputs": [],
      "stateMutability": "nonpayable",
      "type": "function"
    },
    {
      "inputs": [
        {
          "internalType": "uint256",
          "name": "",
          "type": "uint256"
        }
      ],
      "name": "applications",
      "outputs": [
        {
          "internalType": "uint256",
          "name": "jobId",
          "type": "uint256"
        },
        {
          "internalType": "address",
          "name": "freelancer",
          "type": "address"
        },
        {
          "internalType": "string",
          "name": "proposalURI",
          "type": "string"
        },
        {
          "internalType": "uint256",
          "name": "proposedBudget",
          "type": "uint256"
        },
        {
          "internalType": "uint256",
          "name": "proposedDeadline",
          "type": "uint256"
        },
        {
          "internalType": "uint256",
          "name": "appliedAt",
          "type": "uint256"
        },
        {
          "internalType": "enum JobManager.ApplicationStatus",
          "name": "status",
          "type": "uint8"
        }
      ],
      "stateMutability": "view",
      "type": "function"
    },
    {
      "inputs": [
        {
          "internalType": "uint256",
          "name": "_jobId",
          "type": "uint256"
        },
        {
          "internalType": "string",
          "name": "_proposalURI",
          "type": "string"
        },
        {
          "internalType": "uint256",
          "name": "_proposedBudget",
          "type": "uint256"
        },
        {
          "internalType": "uint256",
          "name": "_proposedDeadline",
          "type": "uint256"
        }
      ],
      "name": "applyForJob",
      "outputs": [
        {
          "internalType": "uint256",
          "name": "",
          "type": "uint256"
        }
      ],
      "stateMutability": "nonpayable",
      "type": "function"
    },
    {
      "inputs": [
        {
          "internalType": "address",
          "name": "",
          "type": "address"
        },
        {
          "internalType": "uint256",
          "name": "",
          "type": "uint256"
        }
      ],
      "name": "clientJobs",
      "outputs": [
        {
          "internalType": "uint256",
          "name": "",
          "type": "uint256"
        }
      ],
      "stateMutability": "view",
      "type": "function"
    },
    {
      "inputs": [
        {
          "internalType": "uint256",
          "name": "_jobId",
          "type": "uint256"
        }
      ],
      "name": "completeJob",
      "outputs": [],
      "stateMutability": "nonpayable",
      "type": "function"
    },
    {
      "inputs": [
        {
          "internalType": "address",
          "name": "",
          "type": "address"
        },
        {
          "internalType": "uint256",
          "name": "",
          "type": "uint256"
        }
      ],
      "name": "freelancerApplications",
      "outputs": [
        {
          "internalType": "uint256",
          "name": "",
          "type": "uint256"
        }
      ],
      "stateMutability": "view",
      "type": "function"
    },
    {
      "inputs": [
        {
          "internalType": "address",
          "name": "",
          "type": "address"
        },
        {
          "internalType": "uint256",
          "name": "",
          "type": "uint256"
        }
      ],
      "name": "freelancerJobs",
      "outputs": [
        {
          "internalType": "uint256",
          "name": "",
          "type": "uint256"
        }
      ],
      "stateMutability": "view",
      "type": "function"
    },
    {
      "inputs": [
        {
          "internalType": "address",
          "name": "_client",
          "type": "address"
        }
      ],
      "name": "getClientJobs",
      "outputs": [
        {
          "internalType": "uint256[]",
          "name": "",
          "type": "uint256[]"
        }
      ],
      "stateMutability": "view",
      "type": "function"
    },
    {
      "inputs": [
        {
          "internalType": "address",
          "name": "_freelancer",
          "type": "address"
        }
      ],
      "name": "getFreelancerJobs",
      "outputs": [
        {
          "internalType": "uint256[]",
          "name": "",
          "type": "uint256[]"
        }
      ],
      "stateMutability": "view",
      "type": "function"
    },
    {
      "inputs": [
        {
          "internalType": "uint256",
          "name": "_jobId",
          "type": "uint256"
        }
      ],
      "name": "getJob",
      "outputs": [
        {
          "components": [
            {
              "internalType": "uint256",
              "name": "id",
              "type": "uint256"
            },
            {
              "internalType": "address",
              "name": "client",
              "type": "address"
            },
            {
              "internalType": "address",
              "name": "assignedFreelancer",
              "type": "address"
            },
            {
              "internalType": "string",
              "name": "title",
              "type": "string"
            },
            {
              "internalType": "string",
              "name": "description",
              "type": "string"
            },
            {
              "internalType": "string",
              "name": "metadataURI",
              "type": "string"
            },
            {
              "internalType": "uint256",
              "name": "budget",
              "type": "uint256"
            },
            {
              "internalType": "uint256",
              "name": "deadline",
              "type": "uint256"
            },
            {
              "internalType": "uint256",
              "name": "createdAt",
              "type": "uint256"
            },
            {
              "internalType": "enum JobManager.JobStatus",
              "name": "status",
              "type": "uint8"
            },
            {
              "internalType": "string[]",
              "name": "requiredSkills",
              "type": "string[]"
            },
            {
              "internalType": "string[]",
              "name": "tags",
              "type": "string[]"
            },
            {
              "internalType": "bool",
              "name": "isUrgent",
              "type": "bool"
            }
          ],
          "internalType": "struct JobManager.Job",
          "name": "",
          "type": "tuple"
        }
      ],
      "stateMutability": "view",
      "type": "function"
    },
    {
      "inputs": [
        {
          "internalType": "uint256",
          "name": "_jobId",
          "type": "uint256"
        }
      ],
      "name": "getJobApplications",
      "outputs": [
        {
          "internalType": "uint256[]",
          "name": "",
          "type": "uint256[]"
        }
      ],
      "stateMutability": "view",
      "type": "function"
    },
    {
      "inputs": [
        {
          "internalType": "uint256",
          "name": "jobId",
          "type": "uint256"
        }
      ],
      "name": "getJobDetails",
      "outputs": [
        {
          "internalType": "address",
          "name": "client",
          "type": "address"
        },
        {
          "internalType": "address",
          "name": "freelancer",
          "type": "address"
        },
        {
          "internalType": "uint256",
          "name": "budget",
          "type": "uint256"
        },
        {
          "internalType": "uint8",
          "name": "status",
          "type": "uint8"
        }
      ],
      "stateMutability": "view",
      "type": "function"
    },
    {
      "inputs": [
        {
          "internalType": "bytes32",
          "name": "role",
          "type": "bytes32"
        }
      ],
      "name": "getRoleAdmin",
      "outputs": [
        {
          "internalType": "bytes32",
          "name": "",
          "type": "bytes32"
        }
      ],
      "stateMutability": "view",
      "type": "function"
    },
    {
      "inputs": [],
      "name": "getTotalJobs",
      "outputs": [
        {
          "internalType": "uint256",
          "name": "",
          "type": "uint256"
        }
      ],
      "stateMutability": "view",
      "type": "function"
    },
    {
      "inputs": [
        {
          "internalType": "bytes32",
          "name": "role",
          "type": "bytes32"
        },
        {
          "internalType": "address",
          "name": "account",
          "type": "address"
        }
      ],
      "name": "grantRole",
      "outputs": [],
      "stateMutability": "nonpayable",
      "type": "function"
    },
    {
      "inputs": [
        {
          "internalType": "bytes32",
          "name": "role",
          "type": "bytes32"
        },
        {
          "internalType": "address",
          "name": "account",
          "type": "address"
        }
      ],
      "name": "hasRole",
      "outputs": [
        {
          "internalType": "bool",
          "name": "",
          "type": "bool"
        }
      ],
      "stateMutability": "view",
      "type": "function"
    },
    {
      "inputs": [
        {
          "internalType": "uint256",
          "name": "",
          "type": "uint256"
        },
        {
          "internalType": "uint256",
          "name": "",
          "type": "uint256"
        }
      ],
      "name": "jobApplications",
      "outputs": [
        {
          "internalType": "uint256",
          "name": "",
          "type": "uint256"
        }
      ],
      "stateMutability": "view",
      "type": "function"
    },
    {
      "inputs": [
        {
          "internalType": "uint256",
          "name": "",
          "type": "uint256"
        }
      ],
      "name": "jobs",
      "outputs": [
        {
          "internalType": "uint256",
          "name": "id",
          "type": "uint256"
        },
        {
          "internalType": "address",
          "name": "client",
          "type": "address"
        },
        {
          "internalType": "address",
          "name": "assignedFreelancer",
          "type": "address"
        },
        {
          "internalType": "string",
          "name": "title",
          "type": "string"
        },
        {
          "internalType": "string",
          "name": "description",
          "type": "string"
        },
        {
          "internalType": "string",
          "name": "metadataURI",
          "type": "string"
        },
        {
          "internalType": "uint256",
          "name": "budget",
          "type": "uint256"
        },
        {
          "internalType": "uint256",
          "name": "deadline",
          "type": "uint256"
        },
        {
          "internalType": "uint256",
          "name": "createdAt",
          "type": "uint256"
        },
        {
          "internalType": "enum JobManager.JobStatus",
          "name": "status",
          "type": "uint8"
        },
        {
          "internalType": "bool",
          "name": "isUrgent",
          "type": "bool"
        }
      ],
      "stateMutability": "view",
      "type": "function"
    },
    {
      "inputs": [],
      "name": "paused",
      "outputs": [
        {
          "internalType": "bool",
          "name": "",
          "type": "bool"
        }
      ],
      "stateMutability": "view",
      "type": "function"
    },
    {
      "inputs": [
        {
          "internalType": "string",
          "name": "_title",
          "type": "string"
        },
        {
          "internalType": "string",
          "name": "_description",
          "type": "string"
        },
        {
          "internalType": "string",
          "name": "_metadataURI",
          "type": "string"
        },
        {
          "internalType": "uint256",
          "name": "_budget",
          "type": "uint256"
        },
        {
          "internalType": "uint256",
          "name": "_deadline",
          "type": "uint256"
        },
        {
          "internalType": "string[]",
          "name": "_requiredSkills",
          "type": "string[]"
        },
        {
          "internalType": "string[]",
          "name": "_tags",
          "type": "string[]"
        },
        {
          "internalType": "bool",
          "name": "_isUrgent",
          "type": "bool"
        }
      ],
      "name": "postJob",
      "outputs": [
        {
          "internalType": "uint256",
          "name": "",
          "type": "uint256"
        }
      ],
      "stateMutability": "nonpayable",
      "type": "function"
    },
    {
      "inputs": [],
      "name": "registry",
      "outputs": [
        {
          "internalType": "contract ISafeGigRegistry",
          "name": "",
          "type": "address"
        }
      ],
      "stateMutability": "view",
      "type": "function"
    },
    {
      "inputs": [
        {
          "internalType": "bytes32",
          "name": "role",
          "type": "bytes32"
        },
        {
          "internalType": "address",
          "name": "account",
          "type": "address"
        }
      ],
      "name": "renounceRole",
      "outputs": [],
      "stateMutability": "nonpayable",
      "type": "function"
    },
    {
      "inputs": [
        {
          "internalType": "bytes32",
          "name": "role",
          "type": "bytes32"
        },
        {
          "internalType": "address",
          "name": "account",
          "type": "address"
        }
      ],
      "name": "revokeRole",
      "outputs": [],
      "stateMutability": "nonpayable",
      "type": "function"
    },
    {
      "inputs": [
        {
          "internalType": "uint256",
          "name": "_jobId",
          "type": "uint256"
        }
      ],
      "name": "startWork",
      "outputs": [],
      "stateMutability": "nonpayable",
      "type": "function"
    },
    {
      "inputs": [
        {
          "internalType": "uint256",
          "name": "_jobId",
          "type": "uint256"
        }
      ],
      "name": "submitWork",
      "outputs": [],
      "stateMutability": "nonpayable",
      "type": "function"
    },
    {
      "inputs": [
        {
          "internalType": "bytes4",
          "name": "interfaceId",
          "type": "bytes4"
        }
      ],
      "name": "supportsInterface",
      "outputs": [
        {
          "internalType": "bool",
          "name": "",
          "type": "bool"
        }
      ],
      "stateMutability": "view",
      "type": "function"
    },
    {
      "inputs": [
        {
          "internalType": "uint256",
          "name": "_jobId",
          "type": "uint256"
        },
        {
          "internalType": "enum JobManager.JobStatus",
          "name": "_status",
          "type": "uint8"
        }
      ],
      "name": "updateJobStatus",
      "outputs": [],
      "stateMutability": "nonpayable",
      "type": "function"
    }
  ],
  "bytecode": "0x6080346200015857601f6200382d38819003918201601f1916830192916001600160401b038411838510176200015d57808392604095865283396020928391810103126200015857516001600160a01b03811690819003620001585760ff19908160015416600155600160025560018060a01b03196003541617600355600090818052818352838220338352835260ff84832054161562000122575b7fa49807205ce4d355092ef5a8a18f56e8913cf4a201fbe287825b095693c2177592838352828152848320338452815260ff858420541615620000e8575b84516136999081620001748239f35b838352828152848320903384525260018483209182541617905533916000805160206200380d833981519152339280a438808080620000d9565b81805281835283822033835283528382206001828254161790553333836000805160206200380d8339815191528180a46200009b565b600080fd5b634e487b7160e01b600052604160045260246000fdfe608080604052600436101561001357600080fd5b600090813560e01c90816301ffc9a714612bec5750806303a250f914612ab0578063180aedf3146129b95780632084ea53146124f5578063248a9ca3146124c95780632f2ff15d1461241957806336568abe146123865780633aee79961461236857806340f70be4146122f5578063442f5c88146122ad5780634cac35c61461216c5780635c975abb146121495780636db0d05014611ca6578063747143b914611c4157806375b238fc14611c065780637b10399914611bdd57806380d82d5514611ba25780638facd85914611b5a57806391d1485414611b0f578063a1c0d32f146117b0578063a217fddf14611794578063bf22c45714611551578063c4c1152314611400578063cbc368a814610ffc578063cf2646c214610f79578063d279a13314610f31578063d547741f14610ef1578063d943cdc514610266578063dfefadff146101b55763ead39a111461016b57600080fd5b346101b25760403660031901126101b2576024359060043581526008602052604081209081548310156101b25760206101a48484612e4d565b90546040519160031b1c8152f35b80fd5b50346101b25760203660031901126101b257604090600435815260076020522080549060018060a01b03600182015416906101f260028201612ce6565b9060038101549161022c60048301549160ff600660058601549501541695604051978852602088015260e0604088015260e0870190612daf565b926060860152608085015260a0840152600382101561025057829160c08301520390f35b634e487b7160e01b600052602160045260246000fd5b50346101b2576101003660031901126101b2576004356001600160401b03811161079757610298903690600401612e7b565b6024356001600160401b038111610eed576102b7903690600401612e7b565b906044356001600160401b038111610ee9576102d7903690600401612e7b565b60a4356001600160401b0381116107a6576102f6903690600401612f44565b60c4356001600160401b038111610ee557610315903690600401612f44565b9060e435928315158403610ee157600354604051631f5bdf5d60e01b8152336004820152906001600160a01b0316602082602481845afa908115610ed6576103696020926024948c91610ea9575b50613345565b604051638b3f863f60e01b815233600482015292839182905afa8015610e9e5760ff918991610e6f575b501660028114908115610e64575b5015610e13576103af61345e565b6103b76134a2565b845115610ddd5760643515610d9857426084351115610d53576004549560018701600455604051956103e887612c8e565b8787523360208801528860408801526060870152608086015260a085015260643560c085015260843560e085015242610100850152856101208501526101408401526101608301521515610180820152818352600660205260408320815181556001810160018060a01b03602084015116906bffffffffffffffffffffffff60a01b9182825416179055600282019060018060a01b036040850151169082541617905560608201518051906001600160401b03821161099d5781906104b06003850154612c41565b601f8111610d20575b50602090601f8311600114610cb1578792610ca6575b50508160011b916000199060031b1c19161760038201555b60808201518051906001600160401b03821161099d57819061050c6004850154612c41565b601f8111610c73575b50602090601f8311600114610c04578792610bf9575b50508160011b916000199060031b1c19161760048201555b60a08201518051906001600160401b03821161099d5781906105686005850154612c41565b601f8111610bc6575b50602090601f8311600114610b57578792610b4c575b50508160011b916000199060031b1c19161760058201555b60c0820151600682015560e0820151600782015561010082015160088201556101208201516007811015610b38576105da90600983016133c3565b610140820151805190600160401b821161099d57600a83015482600a850155808310610ac0575b50602001600a830186526020862086915b8383106109b15750505050610160820151805190600160401b821161099d57600b83015482600b850155808310610925575b50602001600b830186526020862086915b8383106107f75750505050600c6101809101910151151560ff80198354169116179055338252600a60205261068d81604084206133db565b600354604051631207c03b60e01b81523360048201526001600160a01b0390911690608081602481855afa9081156107ec5784916107be575b506106d760643560408301516131eb565b918151600181018091116107aa57908291606060208895015193015194823b156107a657604051634306b98560e01b8152336004820152602481019190915260448101919091526064810192909252608482019390935291829060a490829084905af1801561079b57610783575b6020826040516064358152817fe6f2f347838fc981db964da8bbb1855db0ed5008037096e90da474c23b0f432b843393a36001600255604051908152f35b61078d8391612c7b565b6107975781610745565b5080fd5b6040513d85823e3d90fd5b8480fd5b634e487b7160e01b86526011600452602486fd5b6107df915060803d81116107e5575b6107d78183612cc5565b810190613410565b386106c6565b503d6107cd565b6040513d86823e3d90fd5b80518051906001600160401b038211610911576108148454612c41565b601f81116108d6575b506020908a601f84116001146108695792806020936001969387969261085e575b5050600019600383901b1c191690841b1785555b01920192019190610655565b01519050388061083e565b85905260208b2091908b5b601f19851681106108be575083602093600196938796938794601f198116106108a5575b505050811b018555610852565b015160001960f88460031b161c19169055388080610898565b91926020600181928685015181550194019201610874565b61090190858c5260208c20601f850160051c81019160208610610907575b601f0160051c01906133ac565b3861081d565b90915081906108f4565b634e487b7160e01b8a52604160045260248afd5b600b8401875260208720908382015b8183018110610944575050610644565b808961095260019354612c41565b80610960575b505001610934565b601f81118414610978575050600081555b8938610958565b828252610993601f60208420920160051c82018583016133ac565b6000835555610971565b634e487b7160e01b86526041600452602486fd5b80518051906001600160401b038211610911576109ce8454612c41565b601f8111610a90575b506020908a601f8411600114610a2357928060209360019693879692610a18575b5050600019600383901b1c191690841b1785555b01920192019190610612565b0151905038806109f8565b85905260208b2091908b5b601f1985168110610a78575083602093600196938796938794601f19811610610a5f575b505050811b018555610a0c565b015160001960f88460031b161c19169055388080610a52565b91926020600181928685015181550194019201610a2e565b610aba90858c5260208c20601f850160051c8101916020861061090757601f0160051c01906133ac565b386109d7565b600a8401875260208720908382015b8183018110610adf575050610601565b8089610aed60019354612c41565b80610afb575b505001610acf565b601f81118414610b13575050600081555b8938610af3565b828252610b2e601f60208420920160051c82018583016133ac565b6000835555610b0c565b634e487b7160e01b85526021600452602485fd5b015190503880610587565b9250600584018752602087209087935b601f1984168510610bab576001945083601f19811610610b92575b505050811b01600582015561059f565b015160001960f88460031b161c19169055388080610b82565b81810151835560209485019460019093019290910190610b67565b610bf39060058601895260208920601f850160051c8101916020861061090757601f0160051c01906133ac565b38610571565b01519050388061052b565b9250600484018752602087209087935b601f1984168510610c58576001945083601f19811610610c3f575b505050811b016004820155610543565b015160001960f88460031b161c19169055388080610c2f565b81810151835560209485019460019093019290910190610c14565b610ca09060048601895260208920601f850160051c8101916020861061090757601f0160051c01906133ac565b38610515565b0151905038806104cf565b9250600384018752602087209087935b601f1984168510610d05576001945083601f19811610610cec575b505050811b0160038201556104e7565b015160001960f88460031b161c19169055388080610cdc565b81810151835560209485019460019093019290910190610cc1565b610d4d9060038601895260208920601f850160051c8101916020861061090757601f0160051c01906133ac565b386104b9565b60405162461bcd60e51b815260206004820152601e60248201527f446561646c696e65206d75737420626520696e207468652066757475726500006044820152606490fd5b60405162461bcd60e51b815260206004820152601d60248201527f427564676574206d7573742062652067726561746572207468616e20300000006044820152606490fd5b60405162461bcd60e51b815260206004820152600e60248201526d151a5d1b19481c995c5d5a5c995960921b6044820152606490fd5b60405162461bcd60e51b8152602060048201526024808201527f4f6e6c7920636c69656e74732063616e20706572666f726d20746869732061636044820152633a34b7b760e11b6064820152608490fd5b6003915014386103a1565b610e91915060203d602011610e97575b610e898183612cc5565b810190613387565b38610393565b503d610e7f565b6040513d8a823e3d90fd5b610ec99150843d8611610ecf575b610ec18183612cc5565b81019061332d565b38610363565b503d610eb7565b6040513d8b823e3d90fd5b8680fd5b8580fd5b8380fd5b8280fd5b50346101b25760403660031901126101b257610f2e600435610f11612de1565b9080845283602052610f296001604086200154612fc4565b613177565b80f35b50346101b25760403660031901126101b257610f4b612dfc565b6001600160a01b03168152600960205260408120805460243592908310156101b25760206101a48484612e4d565b50346101b257602080600319360112610797576001600160a01b03610f9c612dfc565b168252600a815260408220916040518092808554928381520194835280832092905b828210610fe557610fe185610fd581890382612cc5565b60405191829182612e12565b0390f35b835486529485019460019384019390910190610fbe565b50346101b25760403660031901126101b2576004359060248035906007821015610eed573360009081527f7d7ffb7a348e1c6a02869081a26547b49160dd3df72d1d75a570eb9b698292ec60209081526040909120549092907fa49807205ce4d355092ef5a8a18f56e8913cf4a201fbe287825b095693c217759060ff161561123357506004908585526006845261109a81600960408820016133c3565b85600080516020613644833981519152856040516110b88186612dd4565ba2146110c2578280f35b6003548484526006835260408085206002015490516302ab415160e31b81526001600160a01b039182166004820152929181169060a0848481855afa9384156112285786946111f8575b508686526006855260026040872001541693835192600184018094116111e65750859660068261114b93870151928952526006604088200154906131eb565b916040840151946080606086015195015190833b156111e257604051635ab6e43760e01b81526001600160a01b03919091166004820152602481019290925260448201939093526064810194909452608484019290925260a48301528290829060c490829084905af180156111d7576111c357808280f35b6111cc90612c7b565b6101b2578038808280f35b6040513d84823e3d90fd5b8780fd5b634e487b7160e01b8752601160045286fd5b61121a91945060a03d8111611221575b6112128183612cc5565b810190613596565b923861110c565b503d611208565b6040513d88823e3d90fd5b83915061123f3361321f565b9060405161124c81612caa565b604281528381019160603684378151156113eb576030835381516001908110156113d657607860218401536041905b808211611368575050611326576048611322936112f7936113069360405195869376020b1b1b2b9b9a1b7b73a3937b61d1030b1b1b7bab73a1604d1b8a8601526112ce815180928c603789019101612d8c565b8401917001034b99036b4b9b9b4b733903937b6329607d1b603784015251809386840190612d8c565b01036028810184520182612cc5565b60405193849362461bcd60e51b85526004850152830190612daf565b0390fd5b606485856040519162461bcd60e51b83528160048401528201527f537472696e67733a20686578206c656e67746820696e73756666696369656e746044820152fd5b9091600f811660108110156113c1576f181899199a1a9b1b9c1cb0b131b232b360811b901a611397848661320e565b5360041c9180156113ac57600019019061127b565b87634e487b7160e01b60005260116004526000fd5b88634e487b7160e01b60005260326004526000fd5b86634e487b7160e01b60005260326004526000fd5b85634e487b7160e01b60005260326004526000fd5b50346101b2576020806003193601126107975760043590818352600681526040832061144460018060a01b0391826001820154163314908115611541575b5061354a565b8284526006825260ff6009604086200154166007811015610b385760020361150657828452600682523390600260408620015416036114b157600080516020613644833981519152908284526006815260096040852001600360ff1982541617905560405160038152a280f35b6084906040519062461bcd60e51b82526004820152602860248201527f4f6e6c792061737369676e656420667265656c616e6365722063616e207375626044820152676d697420776f726b60c01b6064820152fd5b60405162461bcd60e51b81526004810183905260136024820152724a6f62206e6f7420696e2070726f677265737360681b6044820152606490fd5b600201548316331490503861143e565b50346101b25760203660031901126101b25780604091610180835161157581612c8e565b828152826020820152828582015260608082015260606080820152606060a08201528260c08201528260e08201528261010082015282610120820152606061014082015260606101608201520152600435815260066020522060ff600c604051926115df84612c8e565b8054845260018101546001600160a01b039081166020860152600282015416604085015261160f60038201612ce6565b606085015261162060048201612ce6565b608085015261163160058201612ce6565b60a0850152600681015460c0850152600781015460e085015260088101546101008501526116698360098301541661012086016133a0565b611675600a82016135ee565b610140850152611687600b82016135ee565b61016085015201541615156101808201526040518091602082528051602083015260018060a01b03602082015116604083015260018060a01b03604082015116606083015261018061178561176f61172261170c6116f660608701516101a060808a01526101c0890190612daf565b6080870151888203601f190160a08a0152612daf565b60a0860151878203601f190160c0890152612daf565b60c085015160e087015260e0850151610100870152610100850151610120870152611757610120860151610140880190612dd4565b610140850151868203601f1901610160880152612ed1565b610160840151858203601f190184870152612ed1565b91015115156101a08301520390f35b50346101b257806003193601126101b257602090604051908152f35b50346101b25760208060031936011261079757600435906117cf6134a2565b818352600681526040832090600982019182549260ff84166007811015611afb57600303611ac25760018201546001600160a01b03949085163303611a7d5760049060ff19161790558260035416604051631207c03b60e01b8152336004820152608081602481855afa908115611a72578791611a54575b50604081015190805192858201519160018301809311611a0c579060608a95949392015193813b15610ee557604051634306b98560e01b81523360048201526024810194909452604484015260648301919091526084820192909252908290829060a490829084905af180156111d757611a40575b50506003546002820180546040516302ab415160e31b81529086166004820181905292861660a082602481845afa918215610ed6578992611a20575b5081519060018201809211611a0c5790829161191f6006898d9601519801978854906131eb565b916040840151966080606086015195015190833b15610ee157604051635ab6e43760e01b81526001600160a01b03919091166004820152602481019290925260448201939093526064810196909652608486019290925260a48501528190849060c490829084905af19283156119ff5787936119e6575b505083600080516020613644833981519152957f4dbba472101e9f148a3a5ecbe793f0ee16a7efe4bf3f8cbfab5330e1642ef9559254169354604051908152a360405160048152a2600160025580f35b6119f291929350612c7b565b610ee55784908638611996565b50604051903d90823e3d90fd5b634e487b7160e01b8a52601160045260248afd5b611a3991925060a03d8111611221576112128183612cc5565b90386118f8565b611a4990612c7b565b6107a65784386118bc565b611a6c915060803d81116107e5576107d78183612cc5565b38611847565b6040513d89823e3d90fd5b60405162461bcd60e51b815260048101859052601c60248201527f4f6e6c7920636c69656e742063616e20636f6d706c657465206a6f62000000006044820152606490fd5b60405162461bcd60e51b8152600481018490526011602482015270129bd8881b9bdd081cdd589b5a5d1d1959607a1b6044820152606490fd5b634e487b7160e01b87526021600452602487fd5b50346101b25760403660031901126101b2576040611b2b612de1565b91600435815280602052209060018060a01b0316600052602052602060ff604060002054166040519015158152f35b50346101b25760403660031901126101b257611b74612dfc565b6001600160a01b03168152600a60205260408120805460243592908310156101b25760206101a48484612e4d565b50346101b257806003193601126101b25760206040517f9314fad2def8e56f9df1fa7f30dc3dafd695603f8f7676a295739a12b879d2f68152f35b50346101b257806003193601126101b2576003546040516001600160a01b039091168152602090f35b50346101b257806003193601126101b25760206040517fa49807205ce4d355092ef5a8a18f56e8913cf4a201fbe287825b095693c217758152f35b50346101b2576020806003193601126107975760043582526008815260408220916040518092808554928381520194835280832092905b828210611c8f57610fe185610fd581890382612cc5565b835486529485019460019384019390910190611c78565b50346101b25760803660031901126101b2576004356024356001600160401b038111610eed57611cda903690600401612e7b565b600354604051631f5bdf5d60e01b815233600482015291936044359290916001600160a01b031690602081602481855afa90811561079b5791611d286020926024948691610ea95750613345565b604051638b3f863f60e01b815233600482015292839182905afa9081156111d7579060ff91839161212a575b50166001811490811561211f575b50156120c957611d7061345e565b611d786134a2565b828152600660205260ff6009604083200154166007811015611f4257611d9e90156134f6565b828152600660205260408120600101546001600160a01b031633146120845781156120305760055491600183016005556040519460e086018681106001600160401b0382111761201a576040528486523360208701526040860152606085015260643560808501524260a08501528060c0850152818152600760205260408120845181556001810160018060a01b036020870151166bffffffffffffffffffffffff60a01b82541617905560408501518051906001600160401b03821161200657611e6c6002840154612c41565b601f8111611fd3575b50602090601f8311600114611f6157918060c094926006948792611f56575b50508160011b916000199060031b1c19161760028201555b606087015160038201556080870151600482015560a0870151600582015501940151936003851015611f425760209460ff8019835416911617905582815260088452611efb82604083206133db565b33815260098452611f0f82604083206133db565b60405192827fedeb7362b9cbfebff3f79f6758cf17633efe326e0235b56d51ea2fb5d75a4a90339380a460016002558152f35b634e487b7160e01b82526021600452602482fd5b015190503880611e94565b906002840185526020852091855b601f1985168110611fbb57509260c0949260019260069583601f19811610611fa2575b505050811b016002820155611eac565b015160001960f88460031b161c19169055388080611f92565b91926020600181928685015181550194019201611f6f565b6120009060028501865260208620601f850160051c8101916020861061090757601f0160051c01906133ac565b38611e75565b634e487b7160e01b84526041600452602484fd5b634e487b7160e01b600052604160045260246000fd5b60405162461bcd60e51b815260206004820152602660248201527f50726f706f73656420627564676574206d75737420626520677265617465722060448201526507468616e20360d41b6064820152608490fd5b60405162461bcd60e51b815260206004820152601760248201527f43616e6e6f74206170706c7920746f206f776e206a6f620000000000000000006044820152606490fd5b60405162461bcd60e51b815260206004820152602860248201527f4f6e6c7920667265656c616e636572732063616e20706572666f726d20746869604482015267399030b1ba34b7b760c11b6064820152608490fd5b600391501438611d62565b612143915060203d602011610e9757610e898183612cc5565b38611d54565b50346101b257806003193601126101b257602060ff600154166040519015158152f35b50346101b25760203660031901126101b25760043581526006602052604081206040519061219982612c8e565b8054825260018101546001600160a01b0390811660208401908152600283015482166040850190815293919081906121d360038601612ce6565b60608501526121e460048601612ce6565b60808501526121f560058601612ce6565b60a085015260068501549360c08101948552600786015460e0820152600886015461010082015261018060ff600c8160098a0154169861223a61012086019a8b6133a0565b612246600a82016135ee565b610140860152612258600b82016135ee565b610160860152015416151591015251169351169051915193600785101561229957509260ff9160809460405194855260208501526040840152166060820152f35b634e487b7160e01b81526021600452602490fd5b50346101b25760403660031901126101b2576122c7612dfc565b6001600160a01b03168152600b60205260408120805460243592908310156101b25760206101a48484612e4d565b50346101b257602080600319360112610797576001600160a01b03612318612dfc565b168252600b815260408220916040518092808554928381520194835280832092905b82821061235157610fe185610fd581890382612cc5565b83548652948501946001938401939091019061233a565b50346101b257806003193601126101b2576020600454604051908152f35b50346101b25760403660031901126101b2576123a0612de1565b336001600160a01b038216036123bc57610f2e90600435613177565b60405162461bcd60e51b815260206004820152602f60248201527f416363657373436f6e74726f6c3a2063616e206f6e6c792072656e6f756e636560448201526e103937b632b9903337b91039b2b63360891b6064820152608490fd5b50346101b25760403660031901126101b257600435612436612de1565b8183528260205261244d6001604085200154612fc4565b81835282602052604083209060018060a01b0316908160005260205260ff604060002054161561247b578280f35b8183528260205260408320816000526020526040600020600160ff1982541617905533917f2f8788117e7eff1d82e926ec794901d17c78024a50270940304540a733656f0d8480a438808280f35b50346101b25760203660031901126101b257600160406020926004358152808452200154604051908152f35b50346101b25760203660031901126101b25761250f61345e565b6125176134a2565b6004358152600760205260408120908154815260066020526040812060018060a01b036001820154163303612965576009810160ff81541660078110156127e05761256290156134f6565b60068401805460ff811660038110156129515761290c5760019060ff1916179055600584015442034281116128f857600354604051631207c03b60e01b815233600482015291906001600160a01b0316608083602481845afa9283156112285786936128d8575b50602083015180156128cf57915b606084015180848102048414811517156128bb5790836125f792026131eb565b916001810181116128a757600181011561289357604084015160208551950151833b1561288f57604051634306b98560e01b815233600482015260248101929092526044820195909552606481019490945260010190910460848301528490829060a490829084905af180156107ec5761287c575b50600184810180546002850180546001600160a01b0319166001600160a01b03928316179055835460ff191690921790925560038501546006840155600485015460079093019290925554168152600b6020526040812082546126ce916133db565b815481526008602052604081206040518082602082945493848152019085526020852092855b81811061286357505061270992500382612cc5565b815b81518110156127f4576004356127218284613536565b511415806127b3575b612754575b60001981146127405760010161270b565b634e487b7160e01b83526011600452602483fd5b61275e8183613536565b518352600760205260408320600601805460ff191660021790556127828183613536565b517fff4a6914fb0bd4cf4c39007d7b466f7f23390a82dc170649a4e3f9e893f1311f602060405160028152a261272f565b506127be8183613536565b518352600760205260ff60066040852001541660038110156127e0571561272a565b634e487b7160e01b84526021600452602484fd5b8284604051600181527fff4a6914fb0bd4cf4c39007d7b466f7f23390a82dc170649a4e3f9e893f1311f602060043592a280546001909101546001600160a01b0316907f3738a681a43a0b6a554742a08bae57e0215e8a774217dc2e7de6c9411b6d0ddc8380a3600160025580f35b84548352600194850194869450602090930192016126f4565b61288890939193612c7b565b913861266c565b8880fd5b634e487b7160e01b87526012600452602487fd5b634e487b7160e01b87526011600452602487fd5b634e487b7160e01b88526011600452602488fd5b506001916125d7565b6128f191935060803d81116107e5576107d78183612cc5565b91386125c9565b634e487b7160e01b84526011600452602484fd5b60405162461bcd60e51b815260206004820152601760248201527f4170706c69636174696f6e206e6f742070656e64696e670000000000000000006044820152606490fd5b634e487b7160e01b86526021600452602486fd5b60405162461bcd60e51b815260206004820152602660248201527f4f6e6c79206a6f62206f776e65722063616e20616363657074206170706c69636044820152656174696f6e7360d01b6064820152608490fd5b50346101b25760203660031901126101b25760043581526006602052604090208054600182015460028301546001600160a01b039182169391166129ff60038301612ce6565b91612a0c60048201612ce6565b92612a1960058301612ce6565b93600683015494600784015491600885015493600986015460ff1695600c015460ff16966040519a8b9a8b5260208b015260408a01526101608060608b01528901612a6391612daf565b88810360808a0152612a7491612daf565b87810360a0890152612a8591612daf565b9460c087015260e08601526101008501526101208401612aa491612dd4565b15156101408301520390f35b50346101b25760208060031936011261079757600435908183526006815260408320612af360018060a01b0391826001820154163314908115611541575061354a565b8284526006825260ff6009604086200154166007811015610b3857600103612bb45782845260068252339060026040862001541603612b6057600080516020613644833981519152908284526006815260096040852001600260ff1982541617905560405160028152a280f35b6084906040519062461bcd60e51b82526004820152602760248201527f4f6e6c792061737369676e656420667265656c616e6365722063616e20737461604482015266727420776f726b60c81b6064820152fd5b60405162461bcd60e51b815260048101839052601060248201526f129bd8881b9bdd08185cdcda59db995960821b6044820152606490fd5b9050346107975760203660031901126107975760043563ffffffff60e01b8116809103610eed5760209250637965db0b60e01b8114908115612c30575b5015158152f35b6301ffc9a760e01b14905038612c29565b90600182811c92168015612c71575b6020831014612c5b57565b634e487b7160e01b600052602260045260246000fd5b91607f1691612c50565b6001600160401b03811161201a57604052565b6101a081019081106001600160401b0382111761201a57604052565b608081019081106001600160401b0382111761201a57604052565b90601f801991011681019081106001600160401b0382111761201a57604052565b9060405191826000825492612cfa84612c41565b908184526001948581169081600014612d695750600114612d26575b5050612d2492500383612cc5565b565b9093915060005260209081600020936000915b818310612d51575050612d2493508201013880612d16565b85548884018501529485019487945091830191612d39565b915050612d2494506020925060ff191682840152151560051b8201013880612d16565b60005b838110612d9f5750506000910152565b8181015183820152602001612d8f565b90602091612dc881518092818552858086019101612d8c565b601f01601f1916010190565b9060078210156102505752565b602435906001600160a01b0382168203612df757565b600080fd5b600435906001600160a01b0382168203612df757565b6020908160408183019282815285518094520193019160005b828110612e39575050505090565b835185529381019392810192600101612e2b565b8054821015612e655760005260206000200190600090565b634e487b7160e01b600052603260045260246000fd5b81601f82011215612df7578035906001600160401b03821161201a5760405192612eaf601f8401601f191660200185612cc5565b82845260208383010111612df757816000926020809301838601378301015290565b908082519081815260208091019281808460051b8301019501936000915b848310612eff5750505050505090565b9091929394958480612f1d600193601f198682030187528a51612daf565b9801930193019194939290612eef565b6001600160401b03811161201a5760051b60200190565b9080601f83011215612df757813590612f5c82612f2d565b92612f6a6040519485612cc5565b828452602092838086019160051b83010192808411612df757848301915b848310612f985750505050505090565b82356001600160401b038111612df7578691612fb984848094890101612e7b565b815201920191612f88565b600090808252602090828252604092838120338252835260ff848220541615612fed5750505050565b612ff63361321f565b9184519061300382612caa565b6042825284820192606036853782511561316357603084538251906001918210156131635790607860218501536041915b8183116130f5575050506130b357604861132293869361309793613088985198899376020b1b1b2b9b9a1b7b73a3937b61d1030b1b1b7bab73a1604d1b8a8601526112ce815180928c603789019101612d8c565b01036028810187520185612cc5565b5192839262461bcd60e51b845260048401526024830190612daf565b60648486519062461bcd60e51b825280600483015260248201527f537472696e67733a20686578206c656e67746820696e73756666696369656e746044820152fd5b909192600f8116601081101561314f576f181899199a1a9b1b9c1cb0b131b232b360811b901a613125858761320e565b5360041c92801561313b57600019019190613034565b634e487b7160e01b82526011600452602482fd5b634e487b7160e01b83526032600452602483fd5b634e487b7160e01b81526032600452602490fd5b9060009180835282602052604083209160018060a01b03169182845260205260ff6040842054166131a757505050565b80835282602052604083208284526020526040832060ff1981541690557ff6391f5c32d9c69d2a47ea670b442974b53935d1edc7fd64eb21e047a839171b339380a4565b919082018092116131f857565b634e487b7160e01b600052601160045260246000fd5b908151811015612e65570160200190565b60405190606082018281106001600160401b0382111761201a57604052602a8252602082016040368237825115612e6557603090538151600190811015612e6557607860218401536029905b8082116132bf57505061327b5790565b606460405162461bcd60e51b815260206004820152602060248201527f537472696e67733a20686578206c656e67746820696e73756666696369656e746044820152fd5b9091600f81166010811015613318576f181899199a1a9b1b9c1cb0b131b232b360811b901a6132ee848661320e565b5360041c91801561330357600019019061326b565b60246000634e487b7160e01b81526011600452fd5b60246000634e487b7160e01b81526032600452fd5b90816020910312612df757518015158103612df75790565b1561334c57565b60405162461bcd60e51b8152602060048201526013602482015272155cd95c881b9bdd081c9959da5cdd195c9959606a1b6044820152606490fd5b90816020910312612df7575160ff81168103612df75790565b60078210156102505752565b8181106133b7575050565b600081556001016133ac565b9060078110156102505760ff80198354169116179055565b8054600160401b81101561201a576133f891600182018155612e4d565b819291549060031b91821b91600019901b1916179055565b90816080910312612df7576040519060808201908282106001600160401b0383111761201a576060916040528051835260208101516020840152604081015160408401520151606082015290565b60ff6001541661346a57565b60405162461bcd60e51b815260206004820152601060248201526f14185d5cd8589b194e881c185d5cd95960821b6044820152606490fd5b60028054146134b15760028055565b60405162461bcd60e51b815260206004820152601f60248201527f5265656e7472616e637947756172643a207265656e7472616e742063616c6c006044820152606490fd5b156134fd57565b60405162461bcd60e51b81526020600482015260116024820152704a6f62206e6f7420617661696c61626c6560781b6044820152606490fd5b8051821015612e655760209160051b010190565b1561355157565b60405162461bcd60e51b815260206004820152601b60248201527f4e6f7420617574686f72697a656420666f722074686973206a6f6200000000006044820152606490fd5b908160a0910312612df7576040519060a08201908282106001600160401b0383111761201a57608091604052805183526020810151602084015260408101516040840152606081015160608401520151608082015290565b9081546135fa81612f2d565b926136086040519485612cc5565b818452600090815260208082208186015b848410613627575050505050565b600183819261363585612ce6565b81520192019301929061361956fe11b03c284cc2f2f20a0797445fdd3b96339380cd6fbb5a0bf34ba9afa7d70271a26469706673582212208b69597940f5341eb73813b7e32a28d18aeb69fbe97de165f0f0d634bc7d39c564736f6c634300081300332f8788117e7eff1d82e926ec794901d17c78024a50270940304540a733656f0d",
  "linkReferences": {},
  "deployedLinkReferences": {}
}