{
  "_format": "hh-sol-artifact-1",
  "contractName": "ReputationSystem",
  "sourceName": "contracts/ReputationSystem.sol",
  "abi": [
    {
      "inputs": [
        {
          "internalType": "address",
          "name": "_registryAddress",
          "type": "address"
        },
        {
          "internalType": "address",
          "name": "_jobManagerAddress",
          "type": "address"
        }
      ],
      "stateMutability": "nonpayable",
      "type": "constructor"
    },
    {
      "anonymous": false,
      "inputs": [
        {
          "indexed": false,
          "internalType": "address",
          "name": "account",
          "type": "address"
        }
      ],
      "name": "Paused",
      "type": "event"
    },
    {
      "anonymous": false,
      "inputs": [
        {
          "indexed": true,
          "internalType": "address",
          "name": "user",
          "type": "address"
        },
        {
          "indexed": false,
          "internalType": "uint256",
          "name": "newAverageRating",
          "type": "uint256"
        }
      ],
      "name": "ReputationUpdated",
      "type": "event"
    },
    {
      "anonymous": false,
      "inputs": [
        {
          "indexed": true,
          "internalType": "uint256",
          "name": "reviewId",
          "type": "uint256"
        },
        {
          "indexed": true,
          "internalType": "uint256",
          "name": "jobId",
          "type": "uint256"
        },
        {
          "indexed": true,
          "internalType": "address",
          "name": "reviewer",
          "type": "address"
        },
        {
          "indexed": false,
          "internalType": "address",
          "name": "reviewee",
          "type": "address"
        },
        {
          "indexed": false,
          "internalType": "uint256",
          "name": "rating",
          "type": "uint256"
        }
      ],
      "name": "ReviewSubmitted",
      "type": "event"
    },
    {
      "anonymous": false,
      "inputs": [
        {
          "indexed": true,
          "internalType": "bytes32",
          "name": "role",
          "type": "bytes32"
        },
        {
          "indexed": true,
          "internalType": "bytes32",
          "name": "previousAdminRole",
          "type": "bytes32"
        },
        {
          "indexed": true,
          "internalType": "bytes32",
          "name": "newAdminRole",
          "type": "bytes32"
        }
      ],
      "name": "RoleAdminChanged",
      "type": "event"
    },
    {
      "anonymous": false,
      "inputs": [
        {
          "indexed": true,
          "internalType": "bytes32",
          "name": "role",
          "type": "bytes32"
        },
        {
          "indexed": true,
          "internalType": "address",
          "name": "account",
          "type": "address"
        },
        {
          "indexed": true,
          "internalType": "address",
          "name": "sender",
          "type": "address"
        }
      ],
      "name": "RoleGranted",
      "type": "event"
    },
    {
      "anonymous": false,
      "inputs": [
        {
          "indexed": true,
          "internalType": "bytes32",
          "name": "role",
          "type": "bytes32"
        },
        {
          "indexed": true,
          "internalType": "address",
          "name": "account",
          "type": "address"
        },
        {
          "indexed": true,
          "internalType": "address",
          "name": "sender",
          "type": "address"
        }
      ],
      "name": "RoleRevoked",
      "type": "event"
    },
    {
      "anonymous": false,
      "inputs": [
        {
          "indexed": false,
          "internalType": "address",
          "name": "account",
          "type": "address"
        }
      ],
      "name": "Unpaused",
      "type": "event"
    },
    {
      "inputs": [],
      "name": "ADMIN_ROLE",
      "outputs": [
        {
          "internalType": "bytes32",
          "name": "",
          "type": "bytes32"
        }
      ],
      "stateMutability": "view",
      "type": "function"
    },
    {
      "inputs": [],
      "name": "DEFAULT_ADMIN_ROLE",
      "outputs": [
        {
          "internalType": "bytes32",
          "name": "",
          "type": "bytes32"
        }
      ],
      "stateMutability": "view",
      "type": "function"
    },
    {
      "inputs": [
        {
          "internalType": "uint256",
          "name": "jobId",
          "type": "uint256"
        }
      ],
      "name": "getJobReviews",
      "outputs": [
        {
          "components": [
            {
              "internalType": "uint256",
              "name": "id",
              "type": "uint256"
            },
            {
              "internalType": "uint256",
              "name": "jobId",
              "type": "uint256"
            },
            {
              "internalType": "address",
              "name": "reviewer",
              "type": "address"
            },
            {
              "internalType": "address",
              "name": "reviewee",
              "type": "address"
            },
            {
              "internalType": "uint256",
              "name": "rating",
              "type": "uint256"
            },
            {
              "internalType": "string",
              "name": "reviewURI",
              "type": "string"
            },
            {
              "internalType": "uint256",
              "name": "timestamp",
              "type": "uint256"
            },
            {
              "internalType": "bool",
              "name": "isFreelancerReview",
              "type": "bool"
            }
          ],
          "internalType": "struct ReputationSystem.Review[]",
          "name": "",
          "type": "tuple[]"
        }
      ],
      "stateMutability": "view",
      "type": "function"
    },
    {
      "inputs": [
        {
          "internalType": "uint256",
          "name": "reviewId",
          "type": "uint256"
        }
      ],
      "name": "getReview",
      "outputs": [
        {
          "components": [
            {
              "internalType": "uint256",
              "name": "id",
              "type": "uint256"
            },
            {
              "internalType": "uint256",
              "name": "jobId",
              "type": "uint256"
            },
            {
              "internalType": "address",
              "name": "reviewer",
              "type": "address"
            },
            {
              "internalType": "address",
              "name": "reviewee",
              "type": "address"
            },
            {
              "internalType": "uint256",
              "name": "rating",
              "type": "uint256"
            },
            {
              "internalType": "string",
              "name": "reviewURI",
              "type": "string"
            },
            {
              "internalType": "uint256",
              "name": "timestamp",
              "type": "uint256"
            },
            {
              "internalType": "bool",
              "name": "isFreelancerReview",
              "type": "bool"
            }
          ],
          "internalType": "struct ReputationSystem.Review",
          "name": "",
          "type": "tuple"
        }
      ],
      "stateMutability": "view",
      "type": "function"
    },
    {
      "inputs": [
        {
          "internalType": "bytes32",
          "name": "role",
          "type": "bytes32"
        }
      ],
      "name": "getRoleAdmin",
      "outputs": [
        {
          "internalType": "bytes32",
          "name": "",
          "type": "bytes32"
        }
      ],
      "stateMutability": "view",
      "type": "function"
    },
    {
      "inputs": [
        {
          "internalType": "address",
          "name": "user",
          "type": "address"
        }
      ],
      "name": "getUserRating",
      "outputs": [
        {
          "internalType": "uint256",
          "name": "",
          "type": "uint256"
        }
      ],
      "stateMutability": "view",
      "type": "function"
    },
    {
      "inputs": [
        {
          "internalType": "address",
          "name": "user",
          "type": "address"
        }
      ],
      "name": "getUserReputation",
      "outputs": [
        {
          "components": [
            {
              "internalType": "uint256",
              "name": "totalRating",
              "type": "uint256"
            },
            {
              "internalType": "uint256",
              "name": "reviewCount",
              "type": "uint256"
            },
            {
              "internalType": "uint256",
              "name": "averageRating",
              "type": "uint256"
            },
            {
              "internalType": "uint256",
              "name": "lastUpdated",
              "type": "uint256"
            }
          ],
          "internalType": "struct ReputationSystem.UserReputation",
          "name": "",
          "type": "tuple"
        }
      ],
      "stateMutability": "view",
      "type": "function"
    },
    {
      "inputs": [
        {
          "internalType": "address",
          "name": "user",
          "type": "address"
        }
      ],
      "name": "getUserReviews",
      "outputs": [
        {
          "internalType": "uint256[]",
          "name": "",
          "type": "uint256[]"
        }
      ],
      "stateMutability": "view",
      "type": "function"
    },
    {
      "inputs": [
        {
          "internalType": "bytes32",
          "name": "role",
          "type": "bytes32"
        },
        {
          "internalType": "address",
          "name": "account",
          "type": "address"
        }
      ],
      "name": "grantRole",
      "outputs": [],
      "stateMutability": "nonpayable",
      "type": "function"
    },
    {
      "inputs": [
        {
          "internalType": "uint256",
          "name": "",
          "type": "uint256"
        },
        {
          "internalType": "address",
          "name": "",
          "type": "address"
        }
      ],
      "name": "hasReviewed",
      "outputs": [
        {
          "internalType": "bool",
          "name": "",
          "type": "bool"
        }
      ],
      "stateMutability": "view",
      "type": "function"
    },
    {
      "inputs": [
        {
          "internalType": "bytes32",
          "name": "role",
          "type": "bytes32"
        },
        {
          "internalType": "address",
          "name": "account",
          "type": "address"
        }
      ],
      "name": "hasRole",
      "outputs": [
        {
          "internalType": "bool",
          "name": "",
          "type": "bool"
        }
      ],
      "stateMutability": "view",
      "type": "function"
    },
    {
      "inputs": [],
      "name": "jobManager",
      "outputs": [
        {
          "internalType": "contract IJobManager",
          "name": "",
          "type": "address"
        }
      ],
      "stateMutability": "view",
      "type": "function"
    },
    {
      "inputs": [],
      "name": "pause",
      "outputs": [],
      "stateMutability": "nonpayable",
      "type": "function"
    },
    {
      "inputs": [],
      "name": "paused",
      "outputs": [
        {
          "internalType": "bool",
          "name": "",
          "type": "bool"
        }
      ],
      "stateMutability": "view",
      "type": "function"
    },
    {
      "inputs": [],
      "name": "registry",
      "outputs": [
        {
          "internalType": "contract ISafeGigRegistry",
          "name": "",
          "type": "address"
        }
      ],
      "stateMutability": "view",
      "type": "function"
    },
    {
      "inputs": [
        {
          "internalType": "bytes32",
          "name": "role",
          "type": "bytes32"
        },
        {
          "internalType": "address",
          "name": "account",
          "type": "address"
        }
      ],
      "name": "renounceRole",
      "outputs": [],
      "stateMutability": "nonpayable",
      "type": "function"
    },
    {
      "inputs": [
        {
          "internalType": "uint256",
          "name": "",
          "type": "uint256"
        }
      ],
      "name": "reviews",
      "outputs": [
        {
          "internalType": "uint256",
          "name": "id",
          "type": "uint256"
        },
        {
          "internalType": "uint256",
          "name": "jobId",
          "type": "uint256"
        },
        {
          "internalType": "address",
          "name": "reviewer",
          "type": "address"
        },
        {
          "internalType": "address",
          "name": "reviewee",
          "type": "address"
        },
        {
          "internalType": "uint256",
          "name": "rating",
          "type": "uint256"
        },
        {
          "internalType": "string",
          "name": "reviewURI",
          "type": "string"
        },
        {
          "internalType": "uint256",
          "name": "timestamp",
          "type": "uint256"
        },
        {
          "internalType": "bool",
          "name": "isFreelancerReview",
          "type": "bool"
        }
      ],
      "stateMutability": "view",
      "type": "function"
    },
    {
      "inputs": [
        {
          "internalType": "bytes32",
          "name": "role",
          "type": "bytes32"
        },
        {
          "internalType": "address",
          "name": "account",
          "type": "address"
        }
      ],
      "name": "revokeRole",
      "outputs": [],
      "stateMutability": "nonpayable",
      "type": "function"
    },
    {
      "inputs": [
        {
          "internalType": "uint256",
          "name": "_jobId",
          "type": "uint256"
        },
        {
          "internalType": "address",
          "name": "_reviewee",
          "type": "address"
        },
        {
          "internalType": "uint256",
          "name": "_rating",
          "type": "uint256"
        },
        {
          "internalType": "string",
          "name": "_reviewURI",
          "type": "string"
        }
      ],
      "name": "submitReview",
      "outputs": [
        {
          "internalType": "uint256",
          "name": "",
          "type": "uint256"
        }
      ],
      "stateMutability": "nonpayable",
      "type": "function"
    },
    {
      "inputs": [
        {
          "internalType": "bytes4",
          "name": "interfaceId",
          "type": "bytes4"
        }
      ],
      "name": "supportsInterface",
      "outputs": [
        {
          "internalType": "bool",
          "name": "",
          "type": "bool"
        }
      ],
      "stateMutability": "view",
      "type": "function"
    },
    {
      "inputs": [],
      "name": "unpause",
      "outputs": [],
      "stateMutability": "nonpayable",
      "type": "function"
    },
    {
      "inputs": [
        {
          "internalType": "address",
          "name": "user",
          "type": "address"
        },
        {
          "internalType": "uint256",
          "name": "rating",
          "type": "uint256"
        }
      ],
      "name": "updateRating",
      "outputs": [],
      "stateMutability": "nonpayable",
      "type": "function"
    },
    {
      "inputs": [
        {
          "internalType": "address",
          "name": "",
          "type": "address"
        }
      ],
      "name": "userReputations",
      "outputs": [
        {
          "internalType": "uint256",
          "name": "totalRating",
          "type": "uint256"
        },
        {
          "internalType": "uint256",
          "name": "reviewCount",
          "type": "uint256"
        },
        {
          "internalType": "uint256",
          "name": "averageRating",
          "type": "uint256"
        },
        {
          "internalType": "uint256",
          "name": "lastUpdated",
          "type": "uint256"
        }
      ],
      "stateMutability": "view",
      "type": "function"
    },
    {
      "inputs": [
        {
          "internalType": "address",
          "name": "",
          "type": "address"
        },
        {
          "internalType": "uint256",
          "name": "",
          "type": "uint256"
        }
      ],
      "name": "userReviews",
      "outputs": [
        {
          "internalType": "uint256",
          "name": "",
          "type": "uint256"
        }
      ],
      "stateMutability": "view",
      "type": "function"
    }
  ],
  "bytecode": "0x608034620001805762001c5090601f38839003908101601f19168201906001600160401b0382118383101762000185578083916040958694855283398101031262000180576200004f816200019b565b6200005e60208093016200019b565b600180546001600160a81b03191660089390931b610100600160a81b031692909217909155600280546001600160a01b0319166001600160a01b03909216919091179055600080805280825282812033825282528281205460ff161562000148575b7fa49807205ce4d355092ef5a8a18f56e8913cf4a201fbe287825b095693c2177591828252818152838220338352815260ff8483205416156200010d575b8351611a7f9081620001b18239f35b8282528181528382209033835252828120600160ff19825416179055339160008051602062001c30833981519152339280a4388080620000fe565b8080528082528281203382528252828120600160ff1982541617905533338260008051602062001c308339815191528180a4620000c0565b600080fd5b634e487b7160e01b600052604160045260246000fd5b51906001600160a01b0382168203620001805756fe608080604052600436101561001357600080fd5b60003560e01c90816301ffc9a7146111785750806318d0e8b2146110c45780631f4ac1291461106c578063248a9ca31461103d5780632b28cd2c14610a0d5780632f2ff15d1461095a57806336568abe146108c85780633df395a31461089f5780633f4ba83a1461080b578063460168c3146107ce5780634e63f9b11461072c5780635c975abb1461070957806375b238fc146106ce5780637b103999146106a15780637c7198cc146106545780638456cb59146105fb57806391d14854146105ae578063990581b6146104fb578063a217fddf146104df578063b41dc51214610309578063baccbfdb14610268578063d547741f14610227578063e83ddcea146101885763f8b116911461012757600080fd5b34610183576020366003190112610183576001600160a01b036101486111cb565b166000526005602052608060406000208054906001810154906003600282015491015491604051938452602084015260408301526060820152f35b600080fd5b346101835760203660031901126101835760043560005260046020526040600020805460018201549160018060a01b03610216816002840154169160038401541660048401546101da6005860161136a565b9160ff600760068801549701541694604051988998895260208901526040880152606087015260808601526101008060a08701528501906112a3565b9160c0840152151560e08301520390f35b34610183576040366003190112610183576102666004356102466111e1565b9080600052600060205261026160016040600020015461162b565b611735565b005b34610183576020366003190112610183576102816111cb565b6000606060405161029181611242565b828152826020820152826040820152015260018060a01b03166000526005602052608060406000206040516102c581611242565b815491828252600181015460208301908152606060036002840154936040860194855201549301928352604051938452516020840152516040830152516060820152f35b34610183576020806003193601126101835760038054600091600435835b8381106104a4575061033884611a1d565b93610346604051958661125e565b808552610355601f1991611a1d565b018560005b82811061048e5750505060009060005b8481106103cf57604080518881528751818a01819052600092600582901b83018101918a8c01918c9085015b8287106103a35785850386f35b9091929382806103bf600193603f198a820301865288516112c8565b9601920196019592919092610396565b806000526004875260406000206001810154908382146103fa575b50506103f5906119f8565b61036a565b936104869160ff60076103f595976040519361041585611225565b815485528d85015260028101546001600160a01b0390811660408601528a820154166060850152600481015460808501526104526005820161136a565b60a0850152600681015460c0850152015416151560e0820152610475828a611a35565b526104808189611a35565b506119f8565b9290886103ea565b6104966119b9565b82828901015201869061035a565b806000526004865281600160406000200154146104ca575b6104c5906119f8565b610327565b936104d76104c5916119f8565b9490506104bc565b3461018357600036600319011261018357602060405160008152f35b34610183576020366003190112610183576105146119b9565b5060043560005260046020526105aa604060002060ff60076040519261053984611225565b805484526001810154602085015260028101546001600160a01b03908116604086015260038201541660608501526004810154608085015261057d6005820161136a565b60a0850152600681015460c0850152015416151560e08201526040519182916020835260208301906112c8565b0390f35b34610183576040366003190112610183576105c76111e1565b600435600052600060205260406000209060018060a01b0316600052602052602060ff604060002054166040519015158152f35b3461018357600036600319011261018357610614611410565b61061c6118dd565b600160ff19815416176001557f62e78cea01bee320cd4e420270b5ea74000d11b0c9f74754ebdbfc544b05a2586020604051338152a1005b346101835760403660031901126101835761066d6111e1565b600435600052600660205260406000209060018060a01b0316600052602052602060ff604060002054166040519015158152f35b346101835760003660031901126101835760015460405160089190911c6001600160a01b03168152602090f35b346101835760003660031901126101835760206040517fa49807205ce4d355092ef5a8a18f56e8913cf4a201fbe287825b095693c217758152f35b3461018357600036600319011261018357602060ff600154166040519015158152f35b34610183576040366003190112610183576107456111cb565b3360009081527f7d7ffb7a348e1c6a02869081a26547b49160dd3df72d1d75a570eb9b698292ec602052604090205460ff1615610789576102669060243590611921565b60405162461bcd60e51b815260206004820152601d60248201527f4f6e6c792061646d696e2063616e2075706461746520726174696e67730000006044820152606490fd5b34610183576020366003190112610183576001600160a01b036107ef6111cb565b1660005260056020526020600260406000200154604051908152f35b3461018357600036600319011261018357610824611410565b60015460ff8116156108635760ff19166001557f5db9ee0a495bf2e6ff9c91a7834c1ba4fdd244a5e8aa4e537bd38aeae4b073aa6020604051338152a1005b60405162461bcd60e51b815260206004820152601460248201527314185d5cd8589b194e881b9bdd081c185d5cd95960621b6044820152606490fd5b34610183576000366003190112610183576002546040516001600160a01b039091168152602090f35b34610183576040366003190112610183576108e16111e1565b336001600160a01b038216036108fd5761026690600435611735565b60405162461bcd60e51b815260206004820152602f60248201527f416363657373436f6e74726f6c3a2063616e206f6e6c792072656e6f756e636560448201526e103937b632b9903337b91039b2b63360891b6064820152608490fd5b34610183576040366003190112610183576004356109766111e1565b81600052600060205261099060016040600020015461162b565b81600052600060205260406000209060018060a01b0316908160005260205260ff60406000205416156109bf57005b8160005260006020526040600020816000526020526040600020600160ff1982541617905533917f2f8788117e7eff1d82e926ec794901d17c78024a50270940304540a733656f0d600080a4005b3461018357608036600319011261018357610a266111e1565b60643567ffffffffffffffff8111610183573660238201121561018357806004013567ffffffffffffffff8111610d455760405191610a6f601f8301601f19166020018461125e565b818352366024838301011161018357816000926024602093018386013783010152610a986118dd565b606460443510158061102f575b15610fdf576001600160a01b0382163314610fa157600435600052600660205260406000203360005260205260ff60406000205416610f5c576002546040516326561ae360e11b815260048035908201529190608090839060249082906001600160a01b03165afa8015610f5057600090600093600091610ef4575b5060ff6004911603610eb75760018060a01b03168033149081610ea1575b8115610e73575b5015610e2057600354916001830160035560405191610b6483611225565b8383526004803560208086019182523360408088018281526001600160a01b038b811660608b0190815260443560808c0190815260a08c01998a524260c08d015299821690941460e08b015260008b81529487905291909320885181559351600185015591516002840180549184166001600160a01b031992831617905590516003840180549190931691161790559251908301555180519067ffffffffffffffff8211610d4557610c196005840154611330565b601f8111610dd9575b50602090601f8311600114610d6657918060e09492600794600092610d5b575b50508160011b916000199060031b1c19161760058201555b60c084015160068201550191015115159060ff199160ff8383541691161790556004356000526006602052604060002033600052602052600160406000209182541617905560018060a01b038216600052600760205260406000209182549268010000000000000000841015610d455783610cdc9160016020960181556111f7565b81549060031b9084821b91600019901b1916179055610cfd60443582611921565b6040519060018060a01b03168152604435838201523390827f5cfae0e88fc97df2098d063e78db355629516ebea31014ecd04d1f1cbbe18688604060043593a4604051908152f35b634e487b7160e01b600052604160045260246000fd5b015190508880610c42565b90601f198316916005850160005260206000209260005b818110610dc1575092600192859260079660e0989610610da8575b505050811b016005820155610c5a565b015160001960f88460031b161c19169055888080610d98565b92936020600181928786015181550195019301610d7d565b600584016000526020600020601f840160051c810160208510610e19575b601f830160051c82018110610e0d575050610c22565b60008155600101610df7565b5080610df7565b60405162461bcd60e51b815260206004820152602560248201527f4e6f7420617574686f72697a656420746f2072657669657720666f722074686960448201526439903537b160d91b6064820152608490fd5b336001600160a01b03851614915081610e8e575b5084610b46565b6001600160a01b03851614905084610e87565b6001600160a01b03858116908516149150610b3f565b60405162461bcd60e51b8152602060048201526015602482015274129bd8881b5d5cdd0818994818dbdb5c1b195d1959605a1b6044820152606490fd5b935050506080823d608011610f48575b81610f116080938361125e565b8101031261018357610f22826118c9565b916060610f31602083016118c9565b9101519260ff8416840361018357909260ff610b21565b3d9150610f04565b6040513d6000823e3d90fd5b60405162461bcd60e51b815260206004820152601d60248201527f416c726561647920726576696577656420666f722074686973206a6f620000006044820152606490fd5b60405162461bcd60e51b815260206004820152601660248201527521b0b73737ba103932bb34b2bb903cb7bab939b2b63360511b6044820152606490fd5b60405162461bcd60e51b815260206004820152602260248201527f526174696e67206d757374206265206265747765656e20312e3020616e64203560448201526102e360f41b6064820152608490fd5b506101f46044351115610aa5565b346101835760203660031901126101835760043560005260006020526020600160406000200154604051908152f35b34610183576040366003190112610183576110856111cb565b6001600160a01b0316600090815260076020526040902080546024359190821015610183576020916110b6916111f7565b90546040519160031b1c8152f35b3461018357602080600319360112610183576001600160a01b036110e66111cb565b1660005260078152604060002060405190818382549182815201908192600052846000209060005b868282106111645786866111248288038361125e565b604051928392818401908285525180915260408401929160005b82811061114d57505050500390f35b83518552869550938101939281019260010161113e565b83548552909301926001928301920161110e565b34610183576020366003190112610183576004359063ffffffff60e01b821680920361018357602091637965db0b60e01b81149081156111ba575b5015158152f35b6301ffc9a760e01b149050836111b3565b600435906001600160a01b038216820361018357565b602435906001600160a01b038216820361018357565b805482101561120f5760005260206000200190600090565b634e487b7160e01b600052603260045260246000fd5b610100810190811067ffffffffffffffff821117610d4557604052565b6080810190811067ffffffffffffffff821117610d4557604052565b90601f8019910116810190811067ffffffffffffffff821117610d4557604052565b60005b8381106112935750506000910152565b8181015183820152602001611283565b906020916112bc81518092818552858086019101611280565b601f01601f1916010190565b90815181526020820151602082015260018060a01b0380604084015116604083015260608301511660608201526080820151608082015260e08061131b60a08501516101008060a08701528501906112a3565b9360c081015160c08501520151151591015290565b90600182811c92168015611360575b602083101461134a57565b634e487b7160e01b600052602260045260246000fd5b91607f169161133f565b906040519182600082549261137e84611330565b9081845260019485811690816000146113ed57506001146113aa575b50506113a89250038361125e565b565b9093915060005260209081600020936000915b8183106113d55750506113a89350820101388061139a565b855488840185015294850194879450918301916113bd565b9150506113a894506020925060ff191682840152151560051b820101388061139a565b3360009081527f7d7ffb7a348e1c6a02869081a26547b49160dd3df72d1d75a570eb9b698292ec602090815260408083205490927fa49807205ce4d355092ef5a8a18f56e8913cf4a201fbe287825b095693c217759160ff16156114745750505050565b61147d336117ba565b9184519061148a82611242565b6042825284820192606036853782511561161757603084538251906001918210156116175790607860218501536041915b8183116115a95750505061156757604861156393869361154793611538985198899376020b1b1b2b9b9a1b7b73a3937b61d1030b1b1b7bab73a1604d1b8a86015261150f815180928c603789019101611280565b8401917001034b99036b4b9b9b4b733903937b6329607d1b603784015251809386840190611280565b0103602881018752018561125e565b5192839262461bcd60e51b8452600484015260248301906112a3565b0390fd5b60648486519062461bcd60e51b825280600483015260248201527f537472696e67733a20686578206c656e67746820696e73756666696369656e746044820152fd5b909192600f81166010811015611603576f181899199a1a9b1b9c1cb0b131b232b360811b901a6115d985876117a9565b5360041c9280156115ef576000190191906114bb565b634e487b7160e01b82526011600452602482fd5b634e487b7160e01b83526032600452602483fd5b634e487b7160e01b81526032600452602490fd5b600090808252602090828252604092838120338252835260ff8482205416156116545750505050565b61165d336117ba565b9184519061166a82611242565b6042825284820192606036853782511561161757603084538251906001918210156116175790607860218501536041915b8183116116ef5750505061156757604861156393869361154793611538985198899376020b1b1b2b9b9a1b7b73a3937b61d1030b1b1b7bab73a1604d1b8a86015261150f815180928c603789019101611280565b909192600f81166010811015611603576f181899199a1a9b1b9c1cb0b131b232b360811b901a61171f85876117a9565b5360041c9280156115ef5760001901919061169b565b9060009180835282602052604083209160018060a01b03169182845260205260ff60408420541661176557505050565b80835282602052604083208284526020526040832060ff1981541690557ff6391f5c32d9c69d2a47ea670b442974b53935d1edc7fd64eb21e047a839171b339380a4565b90815181101561120f570160200190565b604051906060820182811067ffffffffffffffff821117610d4557604052602a825260208201604036823782511561120f5760309053815160019081101561120f57607860218401536029905b80821161185b5750506118175790565b606460405162461bcd60e51b815260206004820152602060248201527f537472696e67733a20686578206c656e67746820696e73756666696369656e746044820152fd5b9091600f811660108110156118b4576f181899199a1a9b1b9c1cb0b131b232b360811b901a61188a84866117a9565b5360041c91801561189f576000190190611807565b60246000634e487b7160e01b81526011600452fd5b60246000634e487b7160e01b81526032600452fd5b51906001600160a01b038216820361018357565b60ff600154166118e957565b60405162461bcd60e51b815260206004820152601060248201526f14185d5cd8589b194e881c185d5cd95960821b6044820152606490fd5b6001600160a01b031660008181526005602052604081208054929390929081019081106115ef578083556001830191825492600184018094116115ef5783905582156119a55750916020917ffc577563f1b9a0461e24abef1e1fcc0d33d3d881f20b5df6dda59de4aae2c821930490816002820155600342910155604051908152a2565b634e487b7160e01b81526012600452602490fd5b604051906119c682611225565b8160e0600091828152826020820152826040820152826060820152826080820152606060a08201528260c08201520152565b6000198114611a075760010190565b634e487b7160e01b600052601160045260246000fd5b67ffffffffffffffff8111610d455760051b60200190565b805182101561120f5760209160051b01019056fea2646970667358221220699469571e36a6e25369395e6c49e9c5ad8720b6196e1367ece218ad365a930464736f6c634300081300332f8788117e7eff1d82e926ec794901d17c78024a50270940304540a733656f0d",
  "linkReferences": {},
  "deployedLinkReferences": {}
}