{
  "_format": "hh-sol-artifact-1",
  "contractName": "SafeGigRegistry",
  "sourceName": "contracts/SafeGigRegistry.sol",
  "abi": [
    {
      "inputs": [],
      "stateMutability": "nonpayable",
      "type": "constructor"
    },
    {
      "anonymous": false,
      "inputs": [
        {
          "indexed": false,
          "internalType": "address",
          "name": "account",
          "type": "address"
        }
      ],
      "name": "Paused",
      "type": "event"
    },
    {
      "anonymous": false,
      "inputs": [
        {
          "indexed": true,
          "internalType": "address",
          "name": "user",
          "type": "address"
        },
        {
          "indexed": false,
          "internalType": "string",
          "name": "metadataURI",
          "type": "string"
        }
      ],
      "name": "ProfileUpdated",
      "type": "event"
    },
    {
      "anonymous": false,
      "inputs": [
        {
          "indexed": true,
          "internalType": "bytes32",
          "name": "role",
          "type": "bytes32"
        },
        {
          "indexed": true,
          "internalType": "bytes32",
          "name": "previousAdminRole",
          "type": "bytes32"
        },
        {
          "indexed": true,
          "internalType": "bytes32",
          "name": "newAdminRole",
          "type": "bytes32"
        }
      ],
      "name": "RoleAdminChanged",
      "type": "event"
    },
    {
      "anonymous": false,
      "inputs": [
        {
          "indexed": true,
          "internalType": "bytes32",
          "name": "role",
          "type": "bytes32"
        },
        {
          "indexed": true,
          "internalType": "address",
          "name": "account",
          "type": "address"
        },
        {
          "indexed": true,
          "internalType": "address",
          "name": "sender",
          "type": "address"
        }
      ],
      "name": "RoleGranted",
      "type": "event"
    },
    {
      "anonymous": false,
      "inputs": [
        {
          "indexed": true,
          "internalType": "bytes32",
          "name": "role",
          "type": "bytes32"
        },
        {
          "indexed": true,
          "internalType": "address",
          "name": "account",
          "type": "address"
        },
        {
          "indexed": true,
          "internalType": "address",
          "name": "sender",
          "type": "address"
        }
      ],
      "name": "RoleRevoked",
      "type": "event"
    },
    {
      "anonymous": false,
      "inputs": [
        {
          "indexed": true,
          "internalType": "address",
          "name": "user",
          "type": "address"
        },
        {
          "indexed": false,
          "internalType": "enum SafeGigRegistry.UserType",
          "name": "userType",
          "type": "uint8"
        }
      ],
      "name": "StatsUpdated",
      "type": "event"
    },
    {
      "anonymous": false,
      "inputs": [
        {
          "indexed": false,
          "internalType": "address",
          "name": "account",
          "type": "address"
        }
      ],
      "name": "Unpaused",
      "type": "event"
    },
    {
      "anonymous": false,
      "inputs": [
        {
          "indexed": true,
          "internalType": "address",
          "name": "user",
          "type": "address"
        },
        {
          "indexed": false,
          "internalType": "enum SafeGigRegistry.UserType",
          "name": "userType",
          "type": "uint8"
        },
        {
          "indexed": false,
          "internalType": "uint256",
          "name": "timestamp",
          "type": "uint256"
        }
      ],
      "name": "UserRegistered",
      "type": "event"
    },
    {
      "anonymous": false,
      "inputs": [
        {
          "indexed": true,
          "internalType": "address",
          "name": "user",
          "type": "address"
        }
      ],
      "name": "UserVerified",
      "type": "event"
    },
    {
      "inputs": [],
      "name": "ADMIN_ROLE",
      "outputs": [
        {
          "internalType": "bytes32",
          "name": "",
          "type": "bytes32"
        }
      ],
      "stateMutability": "view",
      "type": "function"
    },
    {
      "inputs": [],
      "name": "DEFAULT_ADMIN_ROLE",
      "outputs": [
        {
          "internalType": "bytes32",
          "name": "",
          "type": "bytes32"
        }
      ],
      "stateMutability": "view",
      "type": "function"
    },
    {
      "inputs": [],
      "name": "JOB_MANAGER_ROLE",
      "outputs": [
        {
          "internalType": "bytes32",
          "name": "",
          "type": "bytes32"
        }
      ],
      "stateMutability": "view",
      "type": "function"
    },
    {
      "inputs": [],
      "name": "MODERATOR_ROLE",
      "outputs": [
        {
          "internalType": "bytes32",
          "name": "",
          "type": "bytes32"
        }
      ],
      "stateMutability": "view",
      "type": "function"
    },
    {
      "inputs": [
        {
          "internalType": "address",
          "name": "",
          "type": "address"
        }
      ],
      "name": "clientStats",
      "outputs": [
        {
          "internalType": "uint256",
          "name": "totalSpent",
          "type": "uint256"
        },
        {
          "internalType": "uint256",
          "name": "jobsPosted",
          "type": "uint256"
        },
        {
          "internalType": "uint256",
          "name": "jobsCompleted",
          "type": "uint256"
        },
        {
          "internalType": "uint256",
          "name": "responseTime",
          "type": "uint256"
        }
      ],
      "stateMutability": "view",
      "type": "function"
    },
    {
      "inputs": [
        {
          "internalType": "address",
          "name": "",
          "type": "address"
        }
      ],
      "name": "freelancerStats",
      "outputs": [
        {
          "internalType": "uint256",
          "name": "jobsCompleted",
          "type": "uint256"
        },
        {
          "internalType": "uint256",
          "name": "totalEarned",
          "type": "uint256"
        },
        {
          "internalType": "uint256",
          "name": "successRate",
          "type": "uint256"
        },
        {
          "internalType": "uint256",
          "name": "responseTime",
          "type": "uint256"
        },
        {
          "internalType": "uint256",
          "name": "hourlyRate",
          "type": "uint256"
        }
      ],
      "stateMutability": "view",
      "type": "function"
    },
    {
      "inputs": [
        {
          "internalType": "address",
          "name": "_client",
          "type": "address"
        }
      ],
      "name": "getClientStats",
      "outputs": [
        {
          "components": [
            {
              "internalType": "uint256",
              "name": "totalSpent",
              "type": "uint256"
            },
            {
              "internalType": "uint256",
              "name": "jobsPosted",
              "type": "uint256"
            },
            {
              "internalType": "uint256",
              "name": "jobsCompleted",
              "type": "uint256"
            },
            {
              "internalType": "uint256",
              "name": "responseTime",
              "type": "uint256"
            }
          ],
          "internalType": "struct SafeGigRegistry.ClientStats",
          "name": "",
          "type": "tuple"
        }
      ],
      "stateMutability": "view",
      "type": "function"
    },
    {
      "inputs": [
        {
          "internalType": "address",
          "name": "_freelancer",
          "type": "address"
        }
      ],
      "name": "getFreelancerStats",
      "outputs": [
        {
          "components": [
            {
              "internalType": "uint256",
              "name": "jobsCompleted",
              "type": "uint256"
            },
            {
              "internalType": "uint256",
              "name": "totalEarned",
              "type": "uint256"
            },
            {
              "internalType": "uint256",
              "name": "successRate",
              "type": "uint256"
            },
            {
              "internalType": "uint256",
              "name": "responseTime",
              "type": "uint256"
            },
            {
              "internalType": "uint256",
              "name": "hourlyRate",
              "type": "uint256"
            }
          ],
          "internalType": "struct SafeGigRegistry.FreelancerStats",
          "name": "",
          "type": "tuple"
        }
      ],
      "stateMutability": "view",
      "type": "function"
    },
    {
      "inputs": [
        {
          "internalType": "bytes32",
          "name": "role",
          "type": "bytes32"
        }
      ],
      "name": "getRoleAdmin",
      "outputs": [
        {
          "internalType": "bytes32",
          "name": "",
          "type": "bytes32"
        }
      ],
      "stateMutability": "view",
      "type": "function"
    },
    {
      "inputs": [],
      "name": "getTotalUsers",
      "outputs": [
        {
          "internalType": "uint256",
          "name": "",
          "type": "uint256"
        }
      ],
      "stateMutability": "view",
      "type": "function"
    },
    {
      "inputs": [
        {
          "internalType": "address",
          "name": "user",
          "type": "address"
        }
      ],
      "name": "getUserProfile",
      "outputs": [
        {
          "internalType": "string",
          "name": "",
          "type": "string"
        }
      ],
      "stateMutability": "view",
      "type": "function"
    },
    {
      "inputs": [
        {
          "internalType": "address",
          "name": "user",
          "type": "address"
        }
      ],
      "name": "getUserType",
      "outputs": [
        {
          "internalType": "uint8",
          "name": "",
          "type": "uint8"
        }
      ],
      "stateMutability": "view",
      "type": "function"
    },
    {
      "inputs": [
        {
          "internalType": "bytes32",
          "name": "role",
          "type": "bytes32"
        },
        {
          "internalType": "address",
          "name": "account",
          "type": "address"
        }
      ],
      "name": "grantRole",
      "outputs": [],
      "stateMutability": "nonpayable",
      "type": "function"
    },
    {
      "inputs": [
        {
          "internalType": "bytes32",
          "name": "role",
          "type": "bytes32"
        },
        {
          "internalType": "address",
          "name": "account",
          "type": "address"
        }
      ],
      "name": "hasRole",
      "outputs": [
        {
          "internalType": "bool",
          "name": "",
          "type": "bool"
        }
      ],
      "stateMutability": "view",
      "type": "function"
    },
    {
      "inputs": [
        {
          "internalType": "address",
          "name": "user",
          "type": "address"
        }
      ],
      "name": "isRegisteredUser",
      "outputs": [
        {
          "internalType": "bool",
          "name": "",
          "type": "bool"
        }
      ],
      "stateMutability": "view",
      "type": "function"
    },
    {
      "inputs": [],
      "name": "pause",
      "outputs": [],
      "stateMutability": "nonpayable",
      "type": "function"
    },
    {
      "inputs": [],
      "name": "paused",
      "outputs": [
        {
          "internalType": "bool",
          "name": "",
          "type": "bool"
        }
      ],
      "stateMutability": "view",
      "type": "function"
    },
    {
      "inputs": [
        {
          "internalType": "address",
          "name": "",
          "type": "address"
        }
      ],
      "name": "ratingCounts",
      "outputs": [
        {
          "internalType": "uint256",
          "name": "",
          "type": "uint256"
        }
      ],
      "stateMutability": "view",
      "type": "function"
    },
    {
      "inputs": [
        {
          "internalType": "enum SafeGigRegistry.UserType",
          "name": "_userType",
          "type": "uint8"
        },
        {
          "internalType": "string",
          "name": "_metadataURI",
          "type": "string"
        },
        {
          "internalType": "string",
          "name": "_location",
          "type": "string"
        },
        {
          "internalType": "string[]",
          "name": "_skills",
          "type": "string[]"
        }
      ],
      "name": "registerUser",
      "outputs": [],
      "stateMutability": "nonpayable",
      "type": "function"
    },
    {
      "inputs": [
        {
          "internalType": "bytes32",
          "name": "role",
          "type": "bytes32"
        },
        {
          "internalType": "address",
          "name": "account",
          "type": "address"
        }
      ],
      "name": "renounceRole",
      "outputs": [],
      "stateMutability": "nonpayable",
      "type": "function"
    },
    {
      "inputs": [
        {
          "internalType": "bytes32",
          "name": "role",
          "type": "bytes32"
        },
        {
          "internalType": "address",
          "name": "account",
          "type": "address"
        }
      ],
      "name": "revokeRole",
      "outputs": [],
      "stateMutability": "nonpayable",
      "type": "function"
    },
    {
      "inputs": [
        {
          "internalType": "bytes4",
          "name": "interfaceId",
          "type": "bytes4"
        }
      ],
      "name": "supportsInterface",
      "outputs": [
        {
          "internalType": "bool",
          "name": "",
          "type": "bool"
        }
      ],
      "stateMutability": "view",
      "type": "function"
    },
    {
      "inputs": [],
      "name": "unpause",
      "outputs": [],
      "stateMutability": "nonpayable",
      "type": "function"
    },
    {
      "inputs": [
        {
          "internalType": "address",
          "name": "_client",
          "type": "address"
        },
        {
          "internalType": "uint256",
          "name": "_totalSpent",
          "type": "uint256"
        },
        {
          "internalType": "uint256",
          "name": "_jobsPosted",
          "type": "uint256"
        },
        {
          "internalType": "uint256",
          "name": "_jobsCompleted",
          "type": "uint256"
        },
        {
          "internalType": "uint256",
          "name": "_responseTime",
          "type": "uint256"
        }
      ],
      "name": "updateClientStats",
      "outputs": [],
      "stateMutability": "nonpayable",
      "type": "function"
    },
    {
      "inputs": [
        {
          "internalType": "address",
          "name": "_freelancer",
          "type": "address"
        },
        {
          "internalType": "uint256",
          "name": "_jobsCompleted",
          "type": "uint256"
        },
        {
          "internalType": "uint256",
          "name": "_totalEarned",
          "type": "uint256"
        },
        {
          "internalType": "uint256",
          "name": "_successRate",
          "type": "uint256"
        },
        {
          "internalType": "uint256",
          "name": "_responseTime",
          "type": "uint256"
        },
        {
          "internalType": "uint256",
          "name": "_hourlyRate",
          "type": "uint256"
        }
      ],
      "name": "updateFreelancerStats",
      "outputs": [],
      "stateMutability": "nonpayable",
      "type": "function"
    },
    {
      "inputs": [
        {
          "internalType": "string",
          "name": "_metadataURI",
          "type": "string"
        },
        {
          "internalType": "string",
          "name": "_location",
          "type": "string"
        },
        {
          "internalType": "string[]",
          "name": "_skills",
          "type": "string[]"
        }
      ],
      "name": "updateProfile",
      "outputs": [],
      "stateMutability": "nonpayable",
      "type": "function"
    },
    {
      "inputs": [
        {
          "internalType": "enum SafeGigRegistry.UserType",
          "name": "_newUserType",
          "type": "uint8"
        }
      ],
      "name": "upgradeUserType",
      "outputs": [],
      "stateMutability": "nonpayable",
      "type": "function"
    },
    {
      "inputs": [
        {
          "internalType": "address",
          "name": "",
          "type": "address"
        }
      ],
      "name": "userProfiles",
      "outputs": [
        {
          "internalType": "string",
          "name": "metadataURI",
          "type": "string"
        },
        {
          "internalType": "enum SafeGigRegistry.UserType",
          "name": "userType",
          "type": "uint8"
        },
        {
          "internalType": "uint256",
          "name": "registrationTime",
          "type": "uint256"
        },
        {
          "internalType": "bool",
          "name": "isActive",
          "type": "bool"
        },
        {
          "internalType": "bool",
          "name": "isVerified",
          "type": "bool"
        },
        {
          "internalType": "string",
          "name": "location",
          "type": "string"
        }
      ],
      "stateMutability": "view",
      "type": "function"
    },
    {
      "inputs": [
        {
          "internalType": "address",
          "name": "",
          "type": "address"
        }
      ],
      "name": "userRatings",
      "outputs": [
        {
          "internalType": "uint256",
          "name": "",
          "type": "uint256"
        }
      ],
      "stateMutability": "view",
      "type": "function"
    },
    {
      "inputs": [
        {
          "internalType": "address",
          "name": "_user",
          "type": "address"
        }
      ],
      "name": "verifyUser",
      "outputs": [],
      "stateMutability": "nonpayable",
      "type": "function"
    }
  ],
  "bytecode": "0x6080604081815234620000f95760ff19806001541660015560016002556000908180526020828152838320338452815260ff848420541615620000c3575b7fa49807205ce4d355092ef5a8a18f56e8913cf4a201fbe287825b095693c2177593848452838252808420338552825260ff81852054161562000088575b61247a8681620000ff8239f35b6001918585528481528185209033865252832091825416179055339160008051602062002579833981519152339280a438808080806200007b565b8280528281528383203384528152838320600183825416179055333384600080516020620025798339815191528180a46200003d565b600080fdfe608080604052600436101561001357600080fd5b60003560e01c90816301ffc9a714611a7b575080631207c03b146119da578063155a0a88146119745780631f5bdf5d1461192857806320cb4e11146118ee578063248a9ca3146118bf5780632f2ff15d1461180c578063332d56d71461176157806336568abe146116cf5780633f4ba83a1461163b5780634020d9e814610fe95780634306b98514610f4057806346f1930514610e865780634d81312014610c0e5780635ab6e43714610b565780635c975abb14610b3357806375b238fc14610af8578063797669c914610abd57806380d82d5514610a825780638456cb5914610a295780638b3f863f146109df578063900f58fc146109a557806391d148541461095857806394c825451461076c578063987ee1561461071a5780639be572f6146106fc578063a217fddf146106e0578063d547741f1461069f578063d90ba4dc146106435763f34c5b861461016957600080fd5b3461063e57606036600319011261063e576004356001600160401b03811161063e57610199903690600401611c86565b6024356001600160401b03811161063e576101b8903690600401611c86565b906044356001600160401b03811161063e576101d8903690600401611cdc565b33600052600360205260ff600160406000200154166004811015610628576102019015156123e2565b336000526003602052604060002082516001600160401b038111610453576102298254611afa565b601f81116105f6575b50806020601f821160011461058f57600091610584575b508160011b916000199060031b1c19161790555b336000526003602052600460406000200183516001600160401b038111610453576102888254611afa565b601f8111610552575b506020601f82116001146104e95781929394956000926104de575b50508160011b916000199060031b1c19161790555b336000526003602052600560406000200190805190600160401b8211610453578254828455808310610469575b50602001916000526020600020916000905b8282106103335784600080516020612425833981519152604051602081528061032e33946020830190611c54565b0390a2005b80518051906001600160401b038211610453576103508654611afa565b601f8111610416575b50602090601f83116001146103a657928260019493602093869560009261039b575b5050600019600383901b1c191690841b1787555b01940191019092610300565b01519050388061037b565b908660005260206000209160005b601f19851681106103fe575083602093600196938796938794601f198116106103e5575b505050811b01875561038f565b015160001960f88460031b161c191690553880806103d8565b919260206001819286850151815501940192016103b4565b61044390876000526020600020601f850160051c81019160208610610449575b601f0160051c019061236f565b38610359565b9091508190610436565b634e487b7160e01b600052604160045260246000fd5b836000526020600020908382015b81830181106104875750506102ee565b8061049460019254611afa565b806104a1575b5001610477565b601f811183146104b75750600081555b3861049a565b6000908282526104d5601f60208420920160051c820185830161236f565b818355556104b1565b0151905038806102ac565b8260005260206000209060005b601f198416811061053a575060019394959683601f19811610610521575b505050811b0190556102c1565b015160001960f88460031b161c19169055388080610514565b9091602060018192858b0151815501930191016104f6565b61057e90836000526020600020601f840160051c8101916020851061044957601f0160051c019061236f565b38610291565b905084015138610249565b91508260005260206000206000925b601f19831684106105de576001935082601f198116106105c5575b5050811b01905561025d565b86015160001960f88460031b161c1916905538806105b9565b8681015182556020938401936001909201910161059e565b61062290836000526020600020601f840160051c8101916020851061044957601f0160051c019061236f565b38610232565b634e487b7160e01b600052602160045260246000fd5b600080fd5b3461063e57602036600319011261063e576001600160a01b03610664611ace565b166000526005602052608060406000208054906001810154906003600282015491015491604051938452602084015260408301526060820152f35b3461063e57604036600319011261063e576106de6004356106be611ae4565b908060005260006020526106d9600160406000200154612092565b61219c565b005b3461063e57600036600319011261063e57602060405160008152f35b3461063e57600036600319011261063e576020600854604051908152f35b3461063e57602036600319011261063e576001600160a01b0361073b611ace565b1660005260036020526107686107546040600020611b8b565b604051918291602083526020830190611c54565b0390f35b3461063e5760208060031936011261063e5760043590600482101561063e5733600052600380825260019260ff8460406000200154166004811015610628576107b69015156123e2565b60006107c382151561232f565b3360005282845260ff8560406000200154169060048210156106285785600283149283610948575b8315610927575b505050156108e257610811903360005282845284604060002001612386565b33600052815260406000206040519180835260009382549261083284611afa565b93848487015282811690816000146108ad5750600114610864575b3360008051602061242583398151915286880387a2005b6000908152828120949550935b838510610899575050505081016040019060008051602061242583398151915283808061084d565b805486860160400152938201938101610871565b92505050600080516020612425833981519152939450604092915060ff191682850152151560051b830101919083808061084d565b60405162461bcd60e51b815260048101849052601860248201527f43616e206f6e6c79207570677261646520746f20426f746800000000000000006044820152606490fd5b14915081610939575b508585816107f2565b90506106285781811485610930565b92505050600085848414926107eb565b3461063e57604036600319011261063e57610971611ae4565b600435600052600060205260406000209060018060a01b0316600052602052602060ff604060002054166040519015158152f35b3461063e57602036600319011261063e576001600160a01b036109c6611ace565b1660005260066020526020604060002054604051908152f35b3461063e57602036600319011261063e576001600160a01b03610a00611ace565b16600052600360205260ff60016040600020015416600481101561062857602090604051908152f35b3461063e57600036600319011261063e57610a42611d5f565b610a4a61239e565b600160ff19815416176001557f62e78cea01bee320cd4e420270b5ea74000d11b0c9f74754ebdbfc544b05a2586020604051338152a1005b3461063e57600036600319011261063e5760206040517f9314fad2def8e56f9df1fa7f30dc3dafd695603f8f7676a295739a12b879d2f68152f35b3461063e57600036600319011261063e5760206040517f71f3d55856e4058ed06ee057d79ada615f65cdf5f9ee88181b914225088f834f8152f35b3461063e57600036600319011261063e5760206040517fa49807205ce4d355092ef5a8a18f56e8913cf4a201fbe287825b095693c217758152f35b3461063e57600036600319011261063e57602060ff600154166040519015158152f35b3461063e5760c036600319011261063e57610b6f611ace565b610b77611f4d565b604051610b8381611b4f565b602435815260046020820192604435845260408301606435815260608401906084358252608085019260a435845260018060a01b0316958660005284602052604060002095518655516001860155516002850155516003840155519101557f4c6f06e75332768936336a2df54a8c3e7dd4ee1b339232c03af9d8f9fd287587602060405160018152a2005b3461063e5760208060031936011261063e57610c28611ace565b7f71f3d55856e4058ed06ee057d79ada615f65cdf5f9ee88181b914225088f834f8060005260008352604060002033600052835260ff6040600020541615610ce0575060018060a01b031690816000526003815260ff6001604060002001541690600482101561062857610c9f60039215156123e2565b8260005252600360406000200161010061ff00198254161790557fa6625d2d26e786e2f473111bea4b2fcdbbf1863d883a2359989ce3a103d2972a600080a2005b82610cea33612221565b91604051610cf781611b34565b60428152828101916060368437815115610e7057603083538151600190811015610e7057607860218401536041905b808211610e16575050610dd357610d9f93610dae9260489260405196879376020b1b1b2b9b9a1b7b73a3937b61d1030b1b1b7bab73a1604d1b88860152610d76815180928a603789019101611c31565b8401917001034b99036b4b9b9b4b733903937b6329607d1b603784015251809386840190611c31565b01036028810185520183611b6a565b610dcf60405192839262461bcd60e51b845260048401526024830190611c54565b0390fd5b6064836040519062461bcd60e51b825280600483015260248201527f537472696e67733a20686578206c656e67746820696e73756666696369656e746044820152fd5b9091600f81166010811015610e70576f181899199a1a9b1b9c1cb0b131b232b360811b901a610e458486612210565b5360041c918015610e5a576000190190610d26565b634e487b7160e01b600052601160045260246000fd5b634e487b7160e01b600052603260045260246000fd5b3461063e57602036600319011261063e57610e9f611ace565b60006080604051610eaf81611b4f565b828152826020820152826040820152826060820152015260018060a01b0316600052600460205260a06040600020604051610ee981611b4f565b81549182825260018101546020830190815260028201549060408401918252608060046003850154946060870195865201549401938452604051948552516020850152516040840152516060830152516080820152f35b3461063e5760a036600319011261063e57610f59611ace565b610f61611f4d565b604051610f6d81611b34565b60243581526003602082019260443584526040830160643581526060840191608435835260018060a01b031694856000526005602052604060002094518555516001850155516002840155519101557f4c6f06e75332768936336a2df54a8c3e7dd4ee1b339232c03af9d8f9fd287587602060405160028152a2005b3461063e57608036600319011261063e5760048035101561063e576024356001600160401b03811161063e57611023903690600401611c86565b6044356001600160401b03811161063e57611042903690600401611c86565b6064356001600160401b03811161063e57611061903690600401611cdc565b9061106a61239e565b60028054146115f65760028055611084600435151561232f565b33600052600360205260ff600160406000200154166004811015610628576115b157825115611574576040519260e084018481106001600160401b038211176104535760405283526004356020840152426040840152600160608401526000608084015260a083015260c0820152336000526003602052604060002081519182516001600160401b0381116104535761111d8354611afa565b601f8111611542575b506020601f82116001146114da57819293946000926114cf575b50508160011b916000199060031b1c19161782555b60208101516004811015610628576111709060018401612386565b604081015160028301556003820160608201511515815460ff61ff006080860151151560081b1692169061ffff19161717905560a08101518051906001600160401b038211610453576111c66004850154611afa565b601f811161149a575b50602090601f83116001146114275760c09392916000918361141c575b50508160011b916000199060031b1c19161760048401555b0151805190600160401b82116104535760058301548260058501558083106113a4575b5060206005910192016000526020600020916000905b82821061128f5760016008540160085560405161125c81600435611c79565b4260208201527feea238307e4577ec1b8645d63505c2d57767cfc074bb5ab579a615525f07a25760403392a26001600255005b80518051906001600160401b038211610453576112ac8654611afa565b601f8111611372575b50602090601f83116001146113025792826001949360209386956000926112f7575b5050600019600383901b1c191690841b1787555b0194019101909261123d565b0151905089806112d7565b908660005260206000209160005b601f198516811061135a575083602093600196938796938794601f19811610611341575b505050811b0187556112eb565b015160001960f88460031b161c19169055898080611334565b91926020600181928685015181550194019201611310565b61139e90876000526020600020601f850160051c8101916020861061044957601f0160051c019061236f565b866112b5565b600584016000526020600020908382015b81830181106113c5575050611227565b806113d260019254611afa565b806113df575b50016113b5565b601f811183146113f55750600081555b876113d8565b600090828252611413601f60208420920160051c820185830161236f565b818355556113ef565b0151905085806111ec565b906004850160005260206000209160005b601f1985168110611482575091839160019360c09695601f19811610611469575b505050811b016004840155611204565b015160001960f88460031b161c19169055858080611459565b91926020600181928685015181550194019201611438565b6114c990600486016000526020600020601f850160051c8101916020861061044957601f0160051c019061236f565b846111cf565b015190508480611140565b8360005260206000209060005b601f198416811061152a5750600193949583601f19811610611511575b505050811b018255611155565b015160001960f88460031b161c19169055848080611504565b9091602060018192858a0151815501930191016114e7565b61156e90846000526020600020601f840160051c8101916020851061044957601f0160051c019061236f565b84611126565b60405162461bcd60e51b815260206004820152601560248201527413595d1859185d1848155492481c995c5d5a5c9959605a1b6044820152606490fd5b60405162461bcd60e51b815260206004820152601760248201527f5573657220616c726561647920726567697374657265640000000000000000006044820152606490fd5b60405162461bcd60e51b815260206004820152601f60248201527f5265656e7472616e637947756172643a207265656e7472616e742063616c6c006044820152606490fd5b3461063e57600036600319011261063e57611654611d5f565b60015460ff8116156116935760ff19166001557f5db9ee0a495bf2e6ff9c91a7834c1ba4fdd244a5e8aa4e537bd38aeae4b073aa6020604051338152a1005b60405162461bcd60e51b815260206004820152601460248201527314185d5cd8589b194e881b9bdd081c185d5cd95960621b6044820152606490fd5b3461063e57604036600319011261063e576116e8611ae4565b336001600160a01b03821603611704576106de9060043561219c565b60405162461bcd60e51b815260206004820152602f60248201527f416363657373436f6e74726f6c3a2063616e206f6e6c792072656e6f756e636560448201526e103937b632b9903337b91039b2b63360891b6064820152608490fd5b3461063e57602036600319011261063e576001600160a01b03611782611ace565b1660005260036020526117da604060002061076861179f82611b8b565b9160ff6001820154169060ff6002820154916117c2600460038301549201611b8b565b926117e560405198899860c08a5260c08a0190611c54565b956020890190611c79565b60408701528181161515606087015260081c161515608085015283820360a0850152611c54565b3461063e57604036600319011261063e57600435611828611ae4565b816000526000602052611842600160406000200154612092565b81600052600060205260406000209060018060a01b0316908160005260205260ff604060002054161561187157005b8160005260006020526040600020816000526020526040600020600160ff1982541617905533917f2f8788117e7eff1d82e926ec794901d17c78024a50270940304540a733656f0d600080a4005b3461063e57602036600319011261063e5760043560005260006020526020600160406000200154604051908152f35b3461063e57602036600319011261063e576001600160a01b0361190f611ace565b1660005260076020526020604060002054604051908152f35b3461063e57602036600319011261063e576001600160a01b03611949611ace565b16600052600360205260ff600160406000200154166004811015610628576020906040519015158152f35b3461063e57602036600319011261063e576001600160a01b03611995611ace565b16600052600460205260a06040600020805490600181015490600281015460046003830154920154926040519485526020850152604084015260608301526080820152f35b3461063e57602036600319011261063e576119f3611ace565b60006060604051611a0381611b34565b828152826020820152826040820152015260018060a01b0316600052600560205260806040600020604051611a3781611b34565b815491828252600181015460208301908152606060036002840154936040860194855201549301928352604051938452516020840152516040830152516060820152f35b3461063e57602036600319011261063e576004359063ffffffff60e01b821680920361063e57602091637965db0b60e01b8114908115611abd575b5015158152f35b6301ffc9a760e01b14905083611ab6565b600435906001600160a01b038216820361063e57565b602435906001600160a01b038216820361063e57565b90600182811c92168015611b2a575b6020831014611b1457565b634e487b7160e01b600052602260045260246000fd5b91607f1691611b09565b608081019081106001600160401b0382111761045357604052565b60a081019081106001600160401b0382111761045357604052565b90601f801991011681019081106001600160401b0382111761045357604052565b9060405191826000825492611b9f84611afa565b908184526001948581169081600014611c0e5750600114611bcb575b5050611bc992500383611b6a565b565b9093915060005260209081600020936000915b818310611bf6575050611bc993508201013880611bbb565b85548884018501529485019487945091830191611bde565b915050611bc994506020925060ff191682840152151560051b8201013880611bbb565b60005b838110611c445750506000910152565b8181015183820152602001611c34565b90602091611c6d81518092818552858086019101611c31565b601f01601f1916010190565b9060048210156106285752565b81601f8201121561063e578035906001600160401b0382116104535760405192611cba601f8401601f191660200185611b6a565b8284526020838301011161063e57816000926020809301838601378301015290565b9080601f8301121561063e578135906001600160401b0392838311610453578260051b60405194602094611d1286840188611b6a565b865284808701928401019380851161063e57858401925b858410611d3a575050505050505090565b833583811161063e578791611d54848480948a0101611c86565b815201930192611d29565b3360009081527f7d7ffb7a348e1c6a02869081a26547b49160dd3df72d1d75a570eb9b698292ec602090815260408083205490927fa49807205ce4d355092ef5a8a18f56e8913cf4a201fbe287825b095693c217759160ff1615611dc35750505050565b611dcc33612221565b91845190611dd982611b34565b60428252848201926060368537825115611f395760308453825190600191821015611f395790607860218501536041915b818311611ecb57505050611e89576048610dcf938693611e6d93611e5e985198899376020b1b1b2b9b9a1b7b73a3937b61d1030b1b1b7bab73a1604d1b8a860152610d76815180928c603789019101611c31565b01036028810187520185611b6a565b5192839262461bcd60e51b845260048401526024830190611c54565b60648486519062461bcd60e51b825280600483015260248201527f537472696e67733a20686578206c656e67746820696e73756666696369656e746044820152fd5b909192600f81166010811015611f25576f181899199a1a9b1b9c1cb0b131b232b360811b901a611efb8587612210565b5360041c928015611f1157600019019190611e0a565b634e487b7160e01b82526011600452602482fd5b634e487b7160e01b83526032600452602483fd5b634e487b7160e01b81526032600452602490fd5b3360009081527fec33554ee7c70ec5bccf3803da4e5cc79ab96278759be364365ee38f862d37bf602090815260408083205490927f9314fad2def8e56f9df1fa7f30dc3dafd695603f8f7676a295739a12b879d2f69160ff1615611fb15750505050565b611fba33612221565b91845190611fc782611b34565b60428252848201926060368537825115611f395760308453825190600191821015611f395790607860218501536041915b81831161204c57505050611e89576048610dcf938693611e6d93611e5e985198899376020b1b1b2b9b9a1b7b73a3937b61d1030b1b1b7bab73a1604d1b8a860152610d76815180928c603789019101611c31565b909192600f81166010811015611f25576f181899199a1a9b1b9c1cb0b131b232b360811b901a61207c8587612210565b5360041c928015611f1157600019019190611ff8565b600090808252602090828252604092838120338252835260ff8482205416156120bb5750505050565b6120c433612221565b918451906120d182611b34565b60428252848201926060368537825115611f395760308453825190600191821015611f395790607860218501536041915b81831161215657505050611e89576048610dcf938693611e6d93611e5e985198899376020b1b1b2b9b9a1b7b73a3937b61d1030b1b1b7bab73a1604d1b8a860152610d76815180928c603789019101611c31565b909192600f81166010811015611f25576f181899199a1a9b1b9c1cb0b131b232b360811b901a6121868587612210565b5360041c928015611f1157600019019190612102565b9060009180835282602052604083209160018060a01b03169182845260205260ff6040842054166121cc57505050565b80835282602052604083208284526020526040832060ff1981541690557ff6391f5c32d9c69d2a47ea670b442974b53935d1edc7fd64eb21e047a839171b339380a4565b908151811015610e70570160200190565b60405190606082018281106001600160401b0382111761045357604052602a8252602082016040368237825115610e7057603090538151600190811015610e7057607860218401536029905b8082116122c157505061227d5790565b606460405162461bcd60e51b815260206004820152602060248201527f537472696e67733a20686578206c656e67746820696e73756666696369656e746044820152fd5b9091600f8116601081101561231a576f181899199a1a9b1b9c1cb0b131b232b360811b901a6122f08486612210565b5360041c91801561230557600019019061226d565b60246000634e487b7160e01b81526011600452fd5b60246000634e487b7160e01b81526032600452fd5b1561233657565b60405162461bcd60e51b8152602060048201526011602482015270496e76616c69642075736572207479706560781b6044820152606490fd5b81811061237a575050565b6000815560010161236f565b9060048110156106285760ff80198354169116179055565b60ff600154166123aa57565b60405162461bcd60e51b815260206004820152601060248201526f14185d5cd8589b194e881c185d5cd95960821b6044820152606490fd5b156123e957565b60405162461bcd60e51b8152602060048201526013602482015272155cd95c881b9bdd081c9959da5cdd195c9959606a1b6044820152606490fdfedd635a4cd84864e37e4479dbfc2ec667acfa473c83c8422a8ac9d9d07599b01ca2646970667358221220a3a5936bfc900f3467de5dd7728535387a66b732e1652a125b471daadc02c6c264736f6c634300081300332f8788117e7eff1d82e926ec794901d17c78024a50270940304540a733656f0d",
  "linkReferences": {},
  "deployedLinkReferences": {}
}