{
  "_format": "hh-sol-artifact-1",
  "contractName": "SafeGigFactory",
  "sourceName": "contracts/SafeGigFactory.sol",
  "abi": [
    {
      "inputs": [],
      "stateMutability": "nonpayable",
      "type": "constructor"
    },
    {
      "anonymous": false,
      "inputs": [
        {
          "indexed": false,
          "internalType": "string",
          "name": "contractName",
          "type": "string"
        },
        {
          "indexed": false,
          "internalType": "address",
          "name": "contractAddress",
          "type": "address"
        }
      ],
      "name": "ContractRegistered",
      "type": "event"
    },
    {
      "anonymous": false,
      "inputs": [
        {
          "indexed": true,
          "internalType": "bytes32",
          "name": "role",
          "type": "bytes32"
        },
        {
          "indexed": true,
          "internalType": "bytes32",
          "name": "previousAdminRole",
          "type": "bytes32"
        },
        {
          "indexed": true,
          "internalType": "bytes32",
          "name": "newAdminRole",
          "type": "bytes32"
        }
      ],
      "name": "RoleAdminChanged",
      "type": "event"
    },
    {
      "anonymous": false,
      "inputs": [
        {
          "indexed": true,
          "internalType": "bytes32",
          "name": "role",
          "type": "bytes32"
        },
        {
          "indexed": true,
          "internalType": "address",
          "name": "account",
          "type": "address"
        },
        {
          "indexed": true,
          "internalType": "address",
          "name": "sender",
          "type": "address"
        }
      ],
      "name": "RoleGranted",
      "type": "event"
    },
    {
      "anonymous": false,
      "inputs": [
        {
          "indexed": true,
          "internalType": "bytes32",
          "name": "role",
          "type": "bytes32"
        },
        {
          "indexed": true,
          "internalType": "address",
          "name": "account",
          "type": "address"
        },
        {
          "indexed": true,
          "internalType": "address",
          "name": "sender",
          "type": "address"
        }
      ],
      "name": "RoleRevoked",
      "type": "event"
    },
    {
      "anonymous": false,
      "inputs": [
        {
          "components": [
            {
              "internalType": "address",
              "name": "registry",
              "type": "address"
            },
            {
              "internalType": "address",
              "name": "jobManager",
              "type": "address"
            },
            {
              "internalType": "address",
              "name": "escrowManager",
              "type": "address"
            },
            {
              "internalType": "address",
              "name": "reputationSystem",
              "type": "address"
            },
            {
              "internalType": "address",
              "name": "disputeResolver",
              "type": "address"
            }
          ],
          "indexed": false,
          "internalType": "struct SafeGigFactory.ContractAddresses",
          "name": "contractAddresses",
          "type": "tuple"
        }
      ],
      "name": "SafeGigDeployed",
      "type": "event"
    },
    {
      "inputs": [],
      "name": "ADMIN_ROLE",
      "outputs": [
        {
          "internalType": "bytes32",
          "name": "",
          "type": "bytes32"
        }
      ],
      "stateMutability": "view",
      "type": "function"
    },
    {
      "inputs": [],
      "name": "DEFAULT_ADMIN_ROLE",
      "outputs": [
        {
          "internalType": "bytes32",
          "name": "",
          "type": "bytes32"
        }
      ],
      "stateMutability": "view",
      "type": "function"
    },
    {
      "inputs": [],
      "name": "contracts",
      "outputs": [
        {
          "internalType": "address",
          "name": "registry",
          "type": "address"
        },
        {
          "internalType": "address",
          "name": "jobManager",
          "type": "address"
        },
        {
          "internalType": "address",
          "name": "escrowManager",
          "type": "address"
        },
        {
          "internalType": "address",
          "name": "reputationSystem",
          "type": "address"
        },
        {
          "internalType": "address",
          "name": "disputeResolver",
          "type": "address"
        }
      ],
      "stateMutability": "view",
      "type": "function"
    },
    {
      "inputs": [],
      "name": "getContractAddresses",
      "outputs": [
        {
          "components": [
            {
              "internalType": "address",
              "name": "registry",
              "type": "address"
            },
            {
              "internalType": "address",
              "name": "jobManager",
              "type": "address"
            },
            {
              "internalType": "address",
              "name": "escrowManager",
              "type": "address"
            },
            {
              "internalType": "address",
              "name": "reputationSystem",
              "type": "address"
            },
            {
              "internalType": "address",
              "name": "disputeResolver",
              "type": "address"
            }
          ],
          "internalType": "struct SafeGigFactory.ContractAddresses",
          "name": "",
          "type": "tuple"
        }
      ],
      "stateMutability": "view",
      "type": "function"
    },
    {
      "inputs": [
        {
          "internalType": "bytes32",
          "name": "role",
          "type": "bytes32"
        }
      ],
      "name": "getRoleAdmin",
      "outputs": [
        {
          "internalType": "bytes32",
          "name": "",
          "type": "bytes32"
        }
      ],
      "stateMutability": "view",
      "type": "function"
    },
    {
      "inputs": [
        {
          "internalType": "bytes32",
          "name": "role",
          "type": "bytes32"
        },
        {
          "internalType": "address",
          "name": "account",
          "type": "address"
        }
      ],
      "name": "grantRole",
      "outputs": [],
      "stateMutability": "nonpayable",
      "type": "function"
    },
    {
      "inputs": [
        {
          "internalType": "bytes32",
          "name": "role",
          "type": "bytes32"
        },
        {
          "internalType": "address",
          "name": "account",
          "type": "address"
        }
      ],
      "name": "hasRole",
      "outputs": [
        {
          "internalType": "bool",
          "name": "",
          "type": "bool"
        }
      ],
      "stateMutability": "view",
      "type": "function"
    },
    {
      "inputs": [],
      "name": "isSystemDeployed",
      "outputs": [
        {
          "internalType": "bool",
          "name": "",
          "type": "bool"
        }
      ],
      "stateMutability": "view",
      "type": "function"
    },
    {
      "inputs": [
        {
          "internalType": "address",
          "name": "_registry",
          "type": "address"
        },
        {
          "internalType": "address",
          "name": "_jobManager",
          "type": "address"
        },
        {
          "internalType": "address",
          "name": "_escrowManager",
          "type": "address"
        },
        {
          "internalType": "address",
          "name": "_reputationSystem",
          "type": "address"
        },
        {
          "internalType": "address",
          "name": "_disputeResolver",
          "type": "address"
        }
      ],
      "name": "registerContracts",
      "outputs": [],
      "stateMutability": "nonpayable",
      "type": "function"
    },
    {
      "inputs": [
        {
          "internalType": "bytes32",
          "name": "role",
          "type": "bytes32"
        },
        {
          "internalType": "address",
          "name": "account",
          "type": "address"
        }
      ],
      "name": "renounceRole",
      "outputs": [],
      "stateMutability": "nonpayable",
      "type": "function"
    },
    {
      "inputs": [
        {
          "internalType": "bytes32",
          "name": "role",
          "type": "bytes32"
        },
        {
          "internalType": "address",
          "name": "account",
          "type": "address"
        }
      ],
      "name": "revokeRole",
      "outputs": [],
      "stateMutability": "nonpayable",
      "type": "function"
    },
    {
      "inputs": [
        {
          "internalType": "bytes4",
          "name": "interfaceId",
          "type": "bytes4"
        }
      ],
      "name": "supportsInterface",
      "outputs": [
        {
          "internalType": "bool",
          "name": "",
          "type": "bool"
        }
      ],
      "stateMutability": "view",
      "type": "function"
    }
  ],
  "bytecode": "0x60806040818152346100e3576000808052602091818352808220338352835260ff8183205416156100ad575b7fa49807205ce4d355092ef5a8a18f56e8913cf4a201fbe287825b095693c2177592838352828152818320338452815260ff828420541615610074575b610e9085816100e98239f35b83835282815281832090338452528120600160ff198254161790553391600080516020610f79833981519152339280a438808080610068565b8180528183528082203383528352808220600160ff19825416179055333383600080516020610f798339815191528180a461002b565b600080fdfe608060408181526004908136101561001657600080fd5b600092833560e01c90816301ffc9a7146109f257508063248a9ca3146109c85780632f2ff15d1461091f57806336568abe1461088d5780636c0f79b61461083e57806375b238fc1461080357806391d14854146107bd578063953874d2146107155780639f51dfae14610185578063a217fddf14610166578063b88d5320146100e75763d547741f146100a857600080fd5b346100e357806003193601126100e3576100e091356100db60016100ca610a46565b938387528660205286200154610a61565b610cb0565b80f35b8280fd5b50346100e357826003193601126100e357600154602093506001600160a01b0390811615159283610158575b8361014a575b8361013d575b508261012f575b50519015158152f35b600554161515915038610126565b548116151592503861011f565b600354821615159350610119565b600254821615159350610113565b83823461018157816003193601126101815751908152602090f35b5080fd5b5090346100e35760a03660031901126100e3576001600160a01b03813581811693918591859003610181576101b8610a46565b9360449081359280841680940361071157606480359180831680930361070d5760843598818a16809a03610709577fa49807205ce4d355092ef5a8a18f56e8913cf4a201fbe287825b095693c2177580895260ff8a60209a808c528181203382528c522054161561052957508a156104e857169384156104a957851561046a57821561042c5788156103ed57505090869493929185875161025881610c40565b8a815284878201528589820152606095838783015260809b8c9b8c96879586809601526bffffffffffffffffffffffff60a01b90838260015416176001558982600254161760025584826003541617600355878282541617905560055416176005558a51818152878a820152828c82015285898201528a8482015260a07f2bdb2f2fe208f68b67475b24785c62d27d6acf6639559b166f6f7cfc5542234191a18a51908b82528b8201600f90528882016e53616665476967526567697374727960881b9052898201527f2a88e68a891ddb61f7aebfdeefd9fb74964fcd5371b692ea59cca73fc58f48059c8d978880968194a18c51908d82528d8201600a90528a8201692537b126b0b730b3b2b960b11b90528b820152a18951908a82528a8201600d90528782016c22b9b1b937bba6b0b730b3b2b960991b905288820152a1865190878252878201601090528482016f52657075746174696f6e53797374656d60801b905285820152a18351938085528401600f905283016e2234b9b83aba32a932b9b7b63b32b960891b9052820152a180f35b7f496e76616c696420646973707574655265736f6c7665722061646472657373008491888a519362461bcd60e51b8552840152601f6024840152820152fd5b7f496e76616c69642072657075746174696f6e53797374656d2061646472657373849188808b519462461bcd60e51b86528501526024840152820152fd5b7f496e76616c696420657363726f774d616e6167657220616464726573730000008491888a519362461bcd60e51b8552840152601d6024840152820152fd5b7f496e76616c6964206a6f624d616e6167657220616464726573730000000000008491888a519362461bcd60e51b8552840152601a6024840152820152fd5b885162461bcd60e51b8152808601899052601860248201527f496e76616c696420726567697374727920616464726573730000000000000000818801528390fd5b86868b8f938c948861053a33610d4b565b929084519161054883610c72565b604283528883019360603686378351156106f657603085538351906001918210156106e35790607860218601536041915b81831161067857505050610639575092610609604861062b946105fa948a9785519687936105d18b86019b76020b1b1b2b9b9a1b7b73a3937b61d1030b1b1b7bab73a1604d1b8d528251928391603789019101610c1d565b8401917001034b99036b4b9b9b4b733903937b6329607d1b603784015251809386840190610c1d565b01036028810185520183610c8e565b5195869462461bcd60e51b865285015251809281602486015285850190610c1d565b601f01601f19168101030190fd5b845162461bcd60e51b8152808701899052602481018990527f537472696e67733a20686578206c656e67746820696e73756666696369656e7481890152fd5b909192600f811660108110156106d0576f181899199a1a9b1b9c1cb0b131b232b360811b901a6106a88588610d24565b53891c9280156106bd57600019019190610579565b634e487b7160e01b825260118a52602482fd5b634e487b7160e01b835260328b52602483fd5b634e487b7160e01b815260328952602490fd5b634e487b7160e01b815260328852602490fd5b8780fd5b8680fd5b8480fd5b5090346100e357826003193601126100e35760a0926080835161073781610c40565b82815282602082015282858201528260608201520152815161075881610c40565b600180851b03809281600154169485845282806002541692602086019384528180806003541692858901938452541694606088019586526080826005541698019788528451998a52511660208901525116908601525116606084015251166080820152f35b5090346100e357816003193601126100e3578160209360ff926107de610a46565b903582528186528282206001600160a01b039091168252855220549151911615158152f35b838234610181578160031936011261018157602090517fa49807205ce4d355092ef5a8a18f56e8913cf4a201fbe287825b095693c217758152f35b50346100e357826003193601126100e35760a09250600180841b038060015416928160025416928280600354169254169260055416938151958652602086015284015260608301526080820152f35b509190346101815782600319360112610181576108a8610a46565b90336001600160a01b038316036108c457906100e09135610cb0565b608490602085519162461bcd60e51b8352820152602f60248201527f416363657373436f6e74726f6c3a2063616e206f6e6c792072656e6f756e636560448201526e103937b632b9903337b91039b2b63360891b6064820152fd5b5090346100e357816003193601126100e357359061093b610a46565b908284528360205261095260018286200154610a61565b82845260208481528185206001600160a01b039093168086529290528084205460ff161561097e578380f35b828452836020528084208285526020528320600160ff1982541617905533917f2f8788117e7eff1d82e926ec794901d17c78024a50270940304540a733656f0d8480a43880808380f35b5090346100e35760203660031901126100e357816020936001923581528085522001549051908152f35b849084346100e35760203660031901126100e3573563ffffffff60e01b81168091036100e35760209250637965db0b60e01b8114908115610a35575b5015158152f35b6301ffc9a760e01b14905083610a2e565b602435906001600160a01b0382168203610a5c57565b600080fd5b60008181526020818152604092838320338452825260ff848420541615610a885750505050565b610a9133610d4b565b90845190610a9e82610c72565b60428252838201946060368737825115610c095760308653825190600191821015610c095790607860218501536041915b818311610b9b57505050610b595784610b35604861062b936044979851988991610b268984019876020b1b1b2b9b9a1b7b73a3937b61d1030b1b1b7bab73a1604d1b8a526105d1815180928d603789019101610c1d565b01036028810189520187610c8e565b5194859362461bcd60e51b8552600485015251809281602486015285850190610c1d565b60648386519062461bcd60e51b825280600483015260248201527f537472696e67733a20686578206c656e67746820696e73756666696369656e746044820152fd5b909192600f81166010811015610bf5576f181899199a1a9b1b9c1cb0b131b232b360811b901a610bcb8587610d24565b5360041c928015610be157600019019190610acf565b634e487b7160e01b82526011600452602482fd5b634e487b7160e01b83526032600452602483fd5b634e487b7160e01b81526032600452602490fd5b60005b838110610c305750506000910152565b8181015183820152602001610c20565b60a0810190811067ffffffffffffffff821117610c5c57604052565b634e487b7160e01b600052604160045260246000fd5b6080810190811067ffffffffffffffff821117610c5c57604052565b90601f8019910116810190811067ffffffffffffffff821117610c5c57604052565b9060009180835282602052604083209160018060a01b03169182845260205260ff604084205416610ce057505050565b80835282602052604083208284526020526040832060ff1981541690557ff6391f5c32d9c69d2a47ea670b442974b53935d1edc7fd64eb21e047a839171b339380a4565b908151811015610d35570160200190565b634e487b7160e01b600052603260045260246000fd5b604051906060820182811067ffffffffffffffff821117610c5c57604052602a8252602082016040368237825115610d3557603090538151600190811015610d3557607860218401536029905b808211610dec575050610da85790565b606460405162461bcd60e51b815260206004820152602060248201527f537472696e67733a20686578206c656e67746820696e73756666696369656e746044820152fd5b9091600f81166010811015610e45576f181899199a1a9b1b9c1cb0b131b232b360811b901a610e1b8486610d24565b5360041c918015610e30576000190190610d98565b60246000634e487b7160e01b81526011600452fd5b60246000634e487b7160e01b81526032600452fdfea264697066735822122029d3e3b026fcca46980ac763bdc49485e9d65ed9c0dc8498a7181602fa000b8064736f6c634300081300332f8788117e7eff1d82e926ec794901d17c78024a50270940304540a733656f0d",
  "linkReferences": {},
  "deployedLinkReferences": {}
}